{
  "_format": "hh-sol-artifact-1",
  "contractName": "AmaneProtocolSovereign",
  "sourceName": "contracts/AmaneProtocolSovereign.sol",
  "abi": [
    {
      "inputs": [
        {
          "internalType": "address",
          "name": "_treasury",
          "type": "address"
        }
      ],
      "stateMutability": "nonpayable",
      "type": "constructor"
    },
    {
      "anonymous": false,
      "inputs": [
        {
          "indexed": true,
          "internalType": "address",
          "name": "provider",
          "type": "address"
        },
        {
          "indexed": false,
          "internalType": "uint256",
          "name": "totalFee",
          "type": "uint256"
        },
        {
          "indexed": false,
          "internalType": "uint256",
          "name": "protocolTake",
          "type": "uint256"
        },
        {
          "indexed": false,
          "internalType": "uint256",
          "name": "providerTake",
          "type": "uint256"
        },
        {
          "indexed": true,
          "internalType": "bytes32",
          "name": "troisId",
          "type": "bytes32"
        }
      ],
      "name": "ServiceFulfillment",
      "type": "event"
    },
    {
      "inputs": [],
      "name": "PROTOCOL_FEE_BPS",
      "outputs": [
        {
          "internalType": "uint256",
          "name": "",
          "type": "uint256"
        }
      ],
      "stateMutability": "view",
      "type": "function"
    },
    {
      "inputs": [],
      "name": "protocolTreasury",
      "outputs": [
        {
          "internalType": "address",
          "name": "",
          "type": "address"
        }
      ],
      "stateMutability": "view",
      "type": "function"
    },
    {
      "inputs": [
        {
          "internalType": "address payable",
          "name": "_provider",
          "type": "address"
        },
        {
          "internalType": "bytes32",
          "name": "_troisId",
          "type": "bytes32"
        }
      ],
      "name": "settleService",
      "outputs": [],
      "stateMutability": "payable",
      "type": "function"
    }
  ],
  "bytecode": "0x608060405234801561001057600080fd5b5060405161043738038061043783398101604081905261002f91610054565b600080546001600160a01b0319166001600160a01b0392909216919091179055610084565b60006020828403121561006657600080fd5b81516001600160a01b038116811461007d57600080fd5b9392505050565b6103a4806100936000396000f3fe6080604052600436106100345760003560e01c8063803db96d14610039578063be37822814610076578063df7af0e41461009a575b600080fd5b34801561004557600080fd5b50600054610059906001600160a01b031681565b6040516001600160a01b0390911681526020015b60405180910390f35b34801561008257600080fd5b5061008c6101f481565b60405190815260200161006d565b6100ad6100a83660046102ce565b6100af565b005b600034116101045760405162461bcd60e51b815260206004820152601d60248201527f466565206d7573742062652067726561746572207468616e207a65726f00000060448201526064015b60405180910390fd5b60006127106101156101f43461031c565b61011f9190610339565b9050600061012d823461035b565b6000805460405192935090916001600160a01b039091169084908381818185875af1925050503d806000811461017f576040519150601f19603f3d011682016040523d82523d6000602084013e610184565b606091505b50509050806101d55760405162461bcd60e51b815260206004820152601c60248201527f50726f746f636f6c20666565207472616e73666572206661696c65640000000060448201526064016100fb565b6000856001600160a01b03168360405160006040518083038185875af1925050503d8060008114610222576040519150601f19603f3d011682016040523d82523d6000602084013e610227565b606091505b50509050806102785760405162461bcd60e51b815260206004820152601760248201527f50726f7669646572207061796d656e74206661696c656400000000000000000060448201526064016100fb565b604080513481526020810186905290810184905285906001600160a01b038816907f89325da4fbd6f9eec6b3c3b3f90be2e1643a3ca7fe2d1cdb573c8ce7ce537cc99060600160405180910390a3505050505050565b600080604083850312156102e157600080fd5b82356001600160a01b03811681146102f857600080fd5b946020939093013593505050565b634e487b7160e01b600052601160045260246000fd5b808202811582820484141761033357610333610306565b92915050565b60008261035657634e487b7160e01b600052601260045260246000fd5b500490565b818103818111156103335761033361030656fea26469706673582212208ad68064a136fe66307f296d1a1d95e197fefe43dc98e3a6b59de16e95b0125864736f6c63430008140033",
  "linkReferences": {},
  "deployedLinkReferences": {}
}