{
  "_format": "hh-sol-artifact-1",
  "contractName": "TBAFactory",
  "sourceName": "contracts/TBAFactory.sol",
  "abi": [
    {
      "anonymous": false,
      "inputs": [
        {
          "indexed": false,
          "internalType": "address",
          "name": "account",
          "type": "address"
        },
        {
          "indexed": false,
          "internalType": "uint256",
          "name": "chainId",
          "type": "uint256"
        },
        {
          "indexed": false,
          "internalType": "address",
          "name": "tokenContract",
          "type": "address"
        },
        {
          "indexed": false,
          "internalType": "uint256",
          "name": "tokenId",
          "type": "uint256"
        },
        {
          "indexed": false,
          "internalType": "uint256",
          "name": "salt",
          "type": "uint256"
        }
      ],
      "name": "AccountCreated",
      "type": "event"
    },
    {
      "inputs": [
        {
          "internalType": "uint256",
          "name": "tokenId",
          "type": "uint256"
        },
        {
          "internalType": "address",
          "name": "tokenContract",
          "type": "address"
        }
      ],
      "name": "createAccount",
      "outputs": [
        {
          "internalType": "address",
          "name": "",
          "type": "address"
        }
      ],
      "stateMutability": "nonpayable",
      "type": "function"
    }
  ],
  "bytecode": "0x608060405234801561001057600080fd5b50610224806100206000396000f3fe608060405234801561001057600080fd5b506004361061002b5760003560e01c8063114c63b114610030575b600080fd5b61004361003e3660046101b2565b61005f565b6040516001600160a01b03909116815260200160405180910390f35b600080838360405160200161009092919091825260601b6bffffffffffffffffffffffff1916602082015260340190565b6040516020818303038152906040528051906020012060001c9050600060ff60f81b30836040516020016100dc90715442415f494e49545f434f44455f4d4f434b60701b815260120190565b6040516020818303038152906040528051906020012060405160200161013994939291906001600160f81b031994909416845260609290921b6bffffffffffffffffffffffff191660018401526015830152603582015260550190565b60408051808303601f1901815282825280516020918201206001600160a01b038082168552469285019290925290871683830152606083018890526080830185905290519092507f74b720dd6ad7b0426acd595959a9610dd2a82eb9d22aede015dcd02bc6bd00af9181900360a00190a1949350505050565b600080604083850312156101c557600080fd5b8235915060208301356001600160a01b03811681146101e357600080fd5b80915050925092905056fea26469706673582212207bf58eb0f3838a3fc098ff044974edb9227df275789fbe201368047cb3ba16f464736f6c63430008140033",
  "linkReferences": {},
  "deployedLinkReferences": {}
}