{
  "_format": "hh-sol-artifact-1",
  "contractName": "OKE_NFT",
  "sourceName": "contracts/OKE_NFT.sol",
  "abi": [
    {
      "inputs": [],
      "stateMutability": "nonpayable",
      "type": "constructor"
    },
    {
      "inputs": [
        {
          "internalType": "address",
          "name": "sender",
          "type": "address"
        },
        {
          "internalType": "uint256",
          "name": "tokenId",
          "type": "uint256"
        },
        {
          "internalType": "address",
          "name": "owner",
          "type": "address"
        }
      ],
      "name": "ERC721IncorrectOwner",
      "type": "error"
    },
    {
      "inputs": [
        {
          "internalType": "address",
          "name": "operator",
          "type": "address"
        },
        {
          "internalType": "uint256",
          "name": "tokenId",
          "type": "uint256"
        }
      ],
      "name": "ERC721InsufficientApproval",
      "type": "error"
    },
    {
      "inputs": [
        {
          "internalType": "address",
          "name": "approver",
          "type": "address"
        }
      ],
      "name": "ERC721InvalidApprover",
      "type": "error"
    },
    {
      "inputs": [
        {
          "internalType": "address",
          "name": "operator",
          "type": "address"
        }
      ],
      "name": "ERC721InvalidOperator",
      "type": "error"
    },
    {
      "inputs": [
        {
          "internalType": "address",
          "name": "owner",
          "type": "address"
        }
      ],
      "name": "ERC721InvalidOwner",
      "type": "error"
    },
    {
      "inputs": [
        {
          "internalType": "address",
          "name": "receiver",
          "type": "address"
        }
      ],
      "name": "ERC721InvalidReceiver",
      "type": "error"
    },
    {
      "inputs": [
        {
          "internalType": "address",
          "name": "sender",
          "type": "address"
        }
      ],
      "name": "ERC721InvalidSender",
      "type": "error"
    },
    {
      "inputs": [
        {
          "internalType": "uint256",
          "name": "tokenId",
          "type": "uint256"
        }
      ],
      "name": "ERC721NonexistentToken",
      "type": "error"
    },
    {
      "inputs": [
        {
          "internalType": "address",
          "name": "owner",
          "type": "address"
        }
      ],
      "name": "OwnableInvalidOwner",
      "type": "error"
    },
    {
      "inputs": [
        {
          "internalType": "address",
          "name": "account",
          "type": "address"
        }
      ],
      "name": "OwnableUnauthorizedAccount",
      "type": "error"
    },
    {
      "anonymous": false,
      "inputs": [
        {
          "indexed": true,
          "internalType": "address",
          "name": "owner",
          "type": "address"
        },
        {
          "indexed": true,
          "internalType": "address",
          "name": "approved",
          "type": "address"
        },
        {
          "indexed": true,
          "internalType": "uint256",
          "name": "tokenId",
          "type": "uint256"
        }
      ],
      "name": "Approval",
      "type": "event"
    },
    {
      "anonymous": false,
      "inputs": [
        {
          "indexed": true,
          "internalType": "address",
          "name": "owner",
          "type": "address"
        },
        {
          "indexed": true,
          "internalType": "address",
          "name": "operator",
          "type": "address"
        },
        {
          "indexed": false,
          "internalType": "bool",
          "name": "approved",
          "type": "bool"
        }
      ],
      "name": "ApprovalForAll",
      "type": "event"
    },
    {
      "anonymous": false,
      "inputs": [
        {
          "indexed": false,
          "internalType": "uint256",
          "name": "_fromTokenId",
          "type": "uint256"
        },
        {
          "indexed": false,
          "internalType": "uint256",
          "name": "_toTokenId",
          "type": "uint256"
        }
      ],
      "name": "BatchMetadataUpdate",
      "type": "event"
    },
    {
      "anonymous": false,
      "inputs": [
        {
          "indexed": true,
          "internalType": "uint256",
          "name": "tokenId",
          "type": "uint256"
        },
        {
          "indexed": false,
          "internalType": "string",
          "name": "category",
          "type": "string"
        },
        {
          "indexed": false,
          "internalType": "uint256",
          "name": "confidence",
          "type": "uint256"
        }
      ],
      "name": "FactExtracted",
      "type": "event"
    },
    {
      "anonymous": false,
      "inputs": [
        {
          "indexed": false,
          "internalType": "uint256",
          "name": "_tokenId",
          "type": "uint256"
        }
      ],
      "name": "MetadataUpdate",
      "type": "event"
    },
    {
      "anonymous": false,
      "inputs": [
        {
          "indexed": true,
          "internalType": "address",
          "name": "previousOwner",
          "type": "address"
        },
        {
          "indexed": true,
          "internalType": "address",
          "name": "newOwner",
          "type": "address"
        }
      ],
      "name": "OwnershipTransferred",
      "type": "event"
    },
    {
      "anonymous": false,
      "inputs": [
        {
          "indexed": true,
          "internalType": "address",
          "name": "from",
          "type": "address"
        },
        {
          "indexed": true,
          "internalType": "address",
          "name": "to",
          "type": "address"
        },
        {
          "indexed": true,
          "internalType": "uint256",
          "name": "tokenId",
          "type": "uint256"
        }
      ],
      "name": "Transfer",
      "type": "event"
    },
    {
      "inputs": [
        {
          "internalType": "address",
          "name": "to",
          "type": "address"
        },
        {
          "internalType": "uint256",
          "name": "tokenId",
          "type": "uint256"
        }
      ],
      "name": "approve",
      "outputs": [],
      "stateMutability": "nonpayable",
      "type": "function"
    },
    {
      "inputs": [
        {
          "internalType": "address",
          "name": "owner",
          "type": "address"
        }
      ],
      "name": "balanceOf",
      "outputs": [
        {
          "internalType": "uint256",
          "name": "",
          "type": "uint256"
        }
      ],
      "stateMutability": "view",
      "type": "function"
    },
    {
      "inputs": [
        {
          "internalType": "uint256",
          "name": "",
          "type": "uint256"
        }
      ],
      "name": "facts",
      "outputs": [
        {
          "internalType": "string",
          "name": "content",
          "type": "string"
        },
        {
          "internalType": "uint256",
          "name": "confidence",
          "type": "uint256"
        },
        {
          "internalType": "string",
          "name": "category",
          "type": "string"
        },
        {
          "internalType": "uint256",
          "name": "timestamp",
          "type": "uint256"
        }
      ],
      "stateMutability": "view",
      "type": "function"
    },
    {
      "inputs": [
        {
          "internalType": "uint256",
          "name": "tokenId",
          "type": "uint256"
        }
      ],
      "name": "getApproved",
      "outputs": [
        {
          "internalType": "address",
          "name": "",
          "type": "address"
        }
      ],
      "stateMutability": "view",
      "type": "function"
    },
    {
      "inputs": [
        {
          "internalType": "address",
          "name": "owner",
          "type": "address"
        },
        {
          "internalType": "address",
          "name": "operator",
          "type": "address"
        }
      ],
      "name": "isApprovedForAll",
      "outputs": [
        {
          "internalType": "bool",
          "name": "",
          "type": "bool"
        }
      ],
      "stateMutability": "view",
      "type": "function"
    },
    {
      "inputs": [
        {
          "internalType": "address",
          "name": "to",
          "type": "address"
        },
        {
          "internalType": "string",
          "name": "metadataURI",
          "type": "string"
        },
        {
          "internalType": "string",
          "name": "content",
          "type": "string"
        },
        {
          "internalType": "uint256",
          "name": "confidence",
          "type": "uint256"
        },
        {
          "internalType": "string",
          "name": "category",
          "type": "string"
        }
      ],
      "name": "mintFact",
      "outputs": [
        {
          "internalType": "uint256",
          "name": "",
          "type": "uint256"
        }
      ],
      "stateMutability": "nonpayable",
      "type": "function"
    },
    {
      "inputs": [],
      "name": "name",
      "outputs": [
        {
          "internalType": "string",
          "name": "",
          "type": "string"
        }
      ],
      "stateMutability": "view",
      "type": "function"
    },
    {
      "inputs": [],
      "name": "nextTokenId",
      "outputs": [
        {
          "internalType": "uint256",
          "name": "",
          "type": "uint256"
        }
      ],
      "stateMutability": "view",
      "type": "function"
    },
    {
      "inputs": [],
      "name": "owner",
      "outputs": [
        {
          "internalType": "address",
          "name": "",
          "type": "address"
        }
      ],
      "stateMutability": "view",
      "type": "function"
    },
    {
      "inputs": [
        {
          "internalType": "uint256",
          "name": "tokenId",
          "type": "uint256"
        }
      ],
      "name": "ownerOf",
      "outputs": [
        {
          "internalType": "address",
          "name": "",
          "type": "address"
        }
      ],
      "stateMutability": "view",
      "type": "function"
    },
    {
      "inputs": [],
      "name": "renounceOwnership",
      "outputs": [],
      "stateMutability": "nonpayable",
      "type": "function"
    },
    {
      "inputs": [
        {
          "internalType": "address",
          "name": "from",
          "type": "address"
        },
        {
          "internalType": "address",
          "name": "to",
          "type": "address"
        },
        {
          "internalType": "uint256",
          "name": "tokenId",
          "type": "uint256"
        }
      ],
      "name": "safeTransferFrom",
      "outputs": [],
      "stateMutability": "nonpayable",
      "type": "function"
    },
    {
      "inputs": [
        {
          "internalType": "address",
          "name": "from",
          "type": "address"
        },
        {
          "internalType": "address",
          "name": "to",
          "type": "address"
        },
        {
          "internalType": "uint256",
          "name": "tokenId",
          "type": "uint256"
        },
        {
          "internalType": "bytes",
          "name": "data",
          "type": "bytes"
        }
      ],
      "name": "safeTransferFrom",
      "outputs": [],
      "stateMutability": "nonpayable",
      "type": "function"
    },
    {
      "inputs": [
        {
          "internalType": "address",
          "name": "operator",
          "type": "address"
        },
        {
          "internalType": "bool",
          "name": "approved",
          "type": "bool"
        }
      ],
      "name": "setApprovalForAll",
      "outputs": [],
      "stateMutability": "nonpayable",
      "type": "function"
    },
    {
      "inputs": [
        {
          "internalType": "bytes4",
          "name": "interfaceId",
          "type": "bytes4"
        }
      ],
      "name": "supportsInterface",
      "outputs": [
        {
          "internalType": "bool",
          "name": "",
          "type": "bool"
        }
      ],
      "stateMutability": "view",
      "type": "function"
    },
    {
      "inputs": [],
      "name": "symbol",
      "outputs": [
        {
          "internalType": "string",
          "name": "",
          "type": "string"
        }
      ],
      "stateMutability": "view",
      "type": "function"
    },
    {
      "inputs": [
        {
          "internalType": "uint256",
          "name": "tokenId",
          "type": "uint256"
        }
      ],
      "name": "tokenURI",
      "outputs": [
        {
          "internalType": "string",
          "name": "",
          "type": "string"
        }
      ],
      "stateMutability": "view",
      "type": "function"
    },
    {
      "inputs": [
        {
          "internalType": "address",
          "name": "from",
          "type": "address"
        },
        {
          "internalType": "address",
          "name": "to",
          "type": "address"
        },
        {
          "internalType": "uint256",
          "name": "tokenId",
          "type": "uint256"
        }
      ],
      "name": "transferFrom",
      "outputs": [],
      "stateMutability": "nonpayable",
      "type": "function"
    },
    {
      "inputs": [
        {
          "internalType": "address",
          "name": "newOwner",
          "type": "address"
        }
      ],
      "name": "transferOwnership",
      "outputs": [],
      "stateMutability": "nonpayable",
      "type": "function"
    }
  ],
  "bytecode": "0x60806040523480156200001157600080fd5b50336040518060400160405280600781526020016613d2d14813919560ca1b815250604051806040016040528060038152602001624f4b4560e81b8152508160009081620000609190620001aa565b5060016200006f8282620001aa565b5050506001600160a01b038116620000a157604051631e4fbdf760e01b81526000600482015260240160405180910390fd5b620000ac81620000b3565b5062000276565b600780546001600160a01b038381166001600160a01b0319831681179093556040519116919082907f8be0079c531659141344cd1fd0a4f28419497f9722a3daafe3b4186f6b6457e090600090a35050565b634e487b7160e01b600052604160045260246000fd5b600181811c908216806200013057607f821691505b6020821081036200015157634e487b7160e01b600052602260045260246000fd5b50919050565b601f821115620001a557600081815260208120601f850160051c81016020861015620001805750805b601f850160051c820191505b81811015620001a1578281556001016200018c565b5050505b505050565b81516001600160401b03811115620001c657620001c662000105565b620001de81620001d784546200011b565b8462000157565b602080601f831160018114620002165760008415620001fd5750858301515b600019600386901b1c1916600185901b178555620001a1565b600085815260208120601f198616915b82811015620002475788860151825594840194600190910190840162000226565b5085821015620002665787850151600019600388901b60f8161c191681555b5050505050600190811b01905550565b61179a80620002866000396000f3fe608060405234801561001057600080fd5b50600436106101215760003560e01c8063715018a6116100ad578063b88d4fde11610071578063b88d4fde1461024d578063c87b56dd14610260578063e985e9c514610273578063f167cada14610286578063f2fde38b146102a957600080fd5b8063715018a61461021057806375794a3c146102185780638da5cb5b1461022157806395d89b4114610232578063a22cb4651461023a57600080fd5b806323b872dd116100f457806323b872dd146101a35780633faa7d0e146101b657806342842e0e146101d75780636352211e146101ea57806370a08231146101fd57600080fd5b806301ffc9a71461012657806306fdde031461014e578063081812fc14610163578063095ea7b31461018e575b600080fd5b6101396101343660046111a5565b6102bc565b60405190151581526020015b60405180910390f35b6101566102e7565b6040516101459190611212565b610176610171366004611225565b610379565b6040516001600160a01b039091168152602001610145565b6101a161019c36600461125a565b6103a2565b005b6101a16101b1366004611284565b6103b1565b6101c96101c436600461136c565b610441565b604051908152602001610145565b6101a16101e5366004611284565b610525565b6101766101f8366004611225565b610545565b6101c961020b36600461140f565b610550565b6101a1610598565b6101c960085481565b6007546001600160a01b0316610176565b6101566105ac565b6101a161024836600461142a565b6105bb565b6101a161025b366004611466565b6105c6565b61015661026e366004611225565b6105de565b6101396102813660046114e2565b6106ef565b610299610294366004611225565b61071d565b6040516101459493929190611515565b6101a16102b736600461140f565b610855565b60006001600160e01b03198216632483248360e11b14806102e157506102e182610893565b92915050565b6060600080546102f690611552565b80601f016020809104026020016040519081016040528092919081815260200182805461032290611552565b801561036f5780601f106103445761010080835404028352916020019161036f565b820191906000526020600020905b81548152906001019060200180831161035257829003601f168201915b5050505050905090565b6000610384826108e3565b506000828152600460205260409020546001600160a01b03166102e1565b6103ad82823361091c565b5050565b6001600160a01b0382166103e057604051633250574960e11b8152600060048201526024015b60405180910390fd5b60006103ed838333610929565b9050836001600160a01b0316816001600160a01b03161461043b576040516364283d7b60e01b81526001600160a01b03808616600483015260248201849052821660448201526064016103d7565b50505050565b600061044b6109b9565b600060086000815461045c9061158c565b9182905550905061046d87826109e6565b6104778187610a00565b6040805160808101825286815260208082018790528183018690524260608301526000848152600990915291909120815181906104b490826115f9565b5060208201516001820155604082015160028201906104d390826115f9565b5060608201518160030155905050807f1c41790f9fc23ada4aa95fcb74b5044c0cd9fe3283d428a588640035bc8ffff884866040516105139291906116b9565b60405180910390a29695505050505050565b610540838383604051806020016040528060008152506105c6565b505050565b60006102e1826108e3565b60006001600160a01b03821661057c576040516322718ad960e21b8152600060048201526024016103d7565b506001600160a01b031660009081526003602052604090205490565b6105a06109b9565b6105aa6000610a50565b565b6060600180546102f690611552565b6103ad338383610aa2565b6105d18484846103b1565b61043b3385858585610b41565b60606105e9826108e3565b506000828152600660205260408120805461060390611552565b80601f016020809104026020016040519081016040528092919081815260200182805461062f90611552565b801561067c5780601f106106515761010080835404028352916020019161067c565b820191906000526020600020905b81548152906001019060200180831161065f57829003601f168201915b50505050509050600061069a60408051602081019091526000815290565b905080516000036106ac575092915050565b8151156106de5780826040516020016106c69291906116db565b60405160208183030381529060405292505050919050565b6106e784610c6c565b949350505050565b6001600160a01b03918216600090815260056020908152604080832093909416825291909152205460ff1690565b60096020526000908152604090208054819061073890611552565b80601f016020809104026020016040519081016040528092919081815260200182805461076490611552565b80156107b15780601f10610786576101008083540402835291602001916107b1565b820191906000526020600020905b81548152906001019060200180831161079457829003601f168201915b5050505050908060010154908060020180546107cc90611552565b80601f01602080910402602001604051908101604052809291908181526020018280546107f890611552565b80156108455780601f1061081a57610100808354040283529160200191610845565b820191906000526020600020905b81548152906001019060200180831161082857829003601f168201915b5050505050908060030154905084565b61085d6109b9565b6001600160a01b03811661088757604051631e4fbdf760e01b8152600060048201526024016103d7565b61089081610a50565b50565b60006001600160e01b031982166380ac58cd60e01b14806108c457506001600160e01b03198216635b5e139f60e01b145b806102e157506301ffc9a760e01b6001600160e01b03198316146102e1565b6000818152600260205260408120546001600160a01b0316806102e157604051637e27328960e01b8152600481018490526024016103d7565b6105408383836001610ce1565b6000828152600260205260408120546001600160a01b0316801580159061095857506001600160a01b03851615155b156109a55760405162461bcd60e51b815260206004820152601960248201527f4f4b453a205472616e736665722069732064697361626c65640000000000000060448201526064016103d7565b6109b0858585610de7565b95945050505050565b6007546001600160a01b031633146105aa5760405163118cdaa760e01b81523360048201526024016103d7565b6103ad828260405180602001604052806000815250610ee0565b6000828152600660205260409020610a1882826115f9565b506040518281527ff8e1a15aba9398e019f0b49df1a4fde98ee17ae345cb5f6b5e2c27f5033e8ce79060200160405180910390a15050565b600780546001600160a01b038381166001600160a01b0319831681179093556040519116919082907f8be0079c531659141344cd1fd0a4f28419497f9722a3daafe3b4186f6b6457e090600090a35050565b6001600160a01b038216610ad457604051630b61174360e31b81526001600160a01b03831660048201526024016103d7565b6001600160a01b03838116600081815260056020908152604080832094871680845294825291829020805460ff191686151590811790915591519182527f17307eab39ab6107e8899845ad3d59bd9653f200f220920489ca2b5937696c31910160405180910390a3505050565b6001600160a01b0383163b15610c6557604051630a85bd0160e11b81526001600160a01b0384169063150b7a0290610b8390889088908790879060040161170a565b6020604051808303816000875af1925050508015610bbe575060408051601f3d908101601f19168201909252610bbb91810190611747565b60015b610c27573d808015610bec576040519150601f19603f3d011682016040523d82523d6000602084013e610bf1565b606091505b508051600003610c1f57604051633250574960e11b81526001600160a01b03851660048201526024016103d7565b805160208201fd5b6001600160e01b03198116630a85bd0160e11b14610c6357604051633250574960e11b81526001600160a01b03851660048201526024016103d7565b505b5050505050565b6060610c77826108e3565b506000610c8f60408051602081019091526000815290565b90506000815111610caf5760405180602001604052806000815250610cda565b80610cb984610ef8565b604051602001610cca9291906116db565b6040516020818303038152906040525b9392505050565b8080610cf557506001600160a01b03821615155b15610db7576000610d05846108e3565b90506001600160a01b03831615801590610d315750826001600160a01b0316816001600160a01b031614155b8015610d445750610d4281846106ef565b155b15610d6d5760405163a9fbf51f60e01b81526001600160a01b03841660048201526024016103d7565b8115610db55783856001600160a01b0316826001600160a01b03167f8c5be1e5ebec7d5bd14f71427d1e84f3dd0314c0f7b2291e5b200ac8c7c3b92560405160405180910390a45b505b5050600090815260046020526040902080546001600160a01b0319166001600160a01b0392909216919091179055565b6000828152600260205260408120546001600160a01b0390811690831615610e1457610e14818486610f8b565b6001600160a01b03811615610e5257610e31600085600080610ce1565b6001600160a01b038116600090815260036020526040902080546000190190555b6001600160a01b03851615610e81576001600160a01b0385166000908152600360205260409020805460010190555b60008481526002602052604080822080546001600160a01b0319166001600160a01b0389811691821790925591518793918516917fddf252ad1be2c89b69c2b068fc378daa952ba7f163c4a11628f55a4df523b3ef91a4949350505050565b610eea8383610fef565b610540336000858585610b41565b60606000610f0583611054565b600101905060008167ffffffffffffffff811115610f2557610f256112c0565b6040519080825280601f01601f191660200182016040528015610f4f576020820181803683370190505b5090508181016020015b600019016f181899199a1a9b1b9c1cb0b131b232b360811b600a86061a8153600a8504945084610f5957509392505050565b610f9683838361112c565b610540576001600160a01b038316610fc457604051637e27328960e01b8152600481018290526024016103d7565b60405163177e802f60e01b81526001600160a01b0383166004820152602481018290526044016103d7565b6001600160a01b03821661101957604051633250574960e11b8152600060048201526024016103d7565b600061102783836000610929565b90506001600160a01b03811615610540576040516339e3563760e11b8152600060048201526024016103d7565b60008072184f03e93ff9f4daa797ed6e38ed64bf6a1f0160401b83106110935772184f03e93ff9f4daa797ed6e38ed64bf6a1f0160401b830492506040015b6d04ee2d6d415b85acef810000000083106110bf576d04ee2d6d415b85acef8100000000830492506020015b662386f26fc1000083106110dd57662386f26fc10000830492506010015b6305f5e10083106110f5576305f5e100830492506008015b612710831061110957612710830492506004015b6064831061111b576064830492506002015b600a83106102e15760010192915050565b60006001600160a01b038316158015906106e75750826001600160a01b0316846001600160a01b03161480611166575061116684846106ef565b806106e75750506000908152600460205260409020546001600160a01b03908116911614919050565b6001600160e01b03198116811461089057600080fd5b6000602082840312156111b757600080fd5b8135610cda8161118f565b60005b838110156111dd5781810151838201526020016111c5565b50506000910152565b600081518084526111fe8160208601602086016111c2565b601f01601f19169290920160200192915050565b602081526000610cda60208301846111e6565b60006020828403121561123757600080fd5b5035919050565b80356001600160a01b038116811461125557600080fd5b919050565b6000806040838503121561126d57600080fd5b6112768361123e565b946020939093013593505050565b60008060006060848603121561129957600080fd5b6112a28461123e565b92506112b06020850161123e565b9150604084013590509250925092565b634e487b7160e01b600052604160045260246000fd5b600067ffffffffffffffff808411156112f1576112f16112c0565b604051601f8501601f19908116603f01168101908282118183101715611319576113196112c0565b8160405280935085815286868601111561133257600080fd5b858560208301376000602087830101525050509392505050565b600082601f83011261135d57600080fd5b610cda838335602085016112d6565b600080600080600060a0868803121561138457600080fd5b61138d8661123e565b9450602086013567ffffffffffffffff808211156113aa57600080fd5b6113b689838a0161134c565b955060408801359150808211156113cc57600080fd5b6113d889838a0161134c565b94506060880135935060808801359150808211156113f557600080fd5b506114028882890161134c565b9150509295509295909350565b60006020828403121561142157600080fd5b610cda8261123e565b6000806040838503121561143d57600080fd5b6114468361123e565b91506020830135801515811461145b57600080fd5b809150509250929050565b6000806000806080858703121561147c57600080fd5b6114858561123e565b93506114936020860161123e565b925060408501359150606085013567ffffffffffffffff8111156114b657600080fd5b8501601f810187136114c757600080fd5b6114d6878235602084016112d6565b91505092959194509250565b600080604083850312156114f557600080fd5b6114fe8361123e565b915061150c6020840161123e565b90509250929050565b60808152600061152860808301876111e6565b856020840152828103604084015261154081866111e6565b91505082606083015295945050505050565b600181811c9082168061156657607f821691505b60208210810361158657634e487b7160e01b600052602260045260246000fd5b50919050565b6000600182016115ac57634e487b7160e01b600052601160045260246000fd5b5060010190565b601f82111561054057600081815260208120601f850160051c810160208610156115da5750805b601f850160051c820191505b81811015610c63578281556001016115e6565b815167ffffffffffffffff811115611613576116136112c0565b611627816116218454611552565b846115b3565b602080601f83116001811461165c57600084156116445750858301515b600019600386901b1c1916600185901b178555610c63565b600085815260208120601f198616915b8281101561168b5788860151825594840194600190910190840161166c565b50858210156116a95787850151600019600388901b60f8161c191681555b5050505050600190811b01905550565b6040815260006116cc60408301856111e6565b90508260208301529392505050565b600083516116ed8184602088016111c2565b8351908301906117018183602088016111c2565b01949350505050565b6001600160a01b038581168252841660208201526040810183905260806060820181905260009061173d908301846111e6565b9695505050505050565b60006020828403121561175957600080fd5b8151610cda8161118f56fea26469706673582212206fb77b688042af50eb0c90a80604392606ed97c717bfdb63c1ab95b32fd9722664736f6c63430008140033",
  "linkReferences": {},
  "deployedLinkReferences": {}
}