{
  "_format": "hh-sol-artifact-1",
  "contractName": "SBT",
  "sourceName": "contracts/SBT.sol",
  "abi": [
    {
      "inputs": [],
      "stateMutability": "nonpayable",
      "type": "constructor"
    },
    {
      "inputs": [
        {
          "internalType": "address",
          "name": "sender",
          "type": "address"
        },
        {
          "internalType": "uint256",
          "name": "tokenId",
          "type": "uint256"
        },
        {
          "internalType": "address",
          "name": "owner",
          "type": "address"
        }
      ],
      "name": "ERC721IncorrectOwner",
      "type": "error"
    },
    {
      "inputs": [
        {
          "internalType": "address",
          "name": "operator",
          "type": "address"
        },
        {
          "internalType": "uint256",
          "name": "tokenId",
          "type": "uint256"
        }
      ],
      "name": "ERC721InsufficientApproval",
      "type": "error"
    },
    {
      "inputs": [
        {
          "internalType": "address",
          "name": "approver",
          "type": "address"
        }
      ],
      "name": "ERC721InvalidApprover",
      "type": "error"
    },
    {
      "inputs": [
        {
          "internalType": "address",
          "name": "operator",
          "type": "address"
        }
      ],
      "name": "ERC721InvalidOperator",
      "type": "error"
    },
    {
      "inputs": [
        {
          "internalType": "address",
          "name": "owner",
          "type": "address"
        }
      ],
      "name": "ERC721InvalidOwner",
      "type": "error"
    },
    {
      "inputs": [
        {
          "internalType": "address",
          "name": "receiver",
          "type": "address"
        }
      ],
      "name": "ERC721InvalidReceiver",
      "type": "error"
    },
    {
      "inputs": [
        {
          "internalType": "address",
          "name": "sender",
          "type": "address"
        }
      ],
      "name": "ERC721InvalidSender",
      "type": "error"
    },
    {
      "inputs": [
        {
          "internalType": "uint256",
          "name": "tokenId",
          "type": "uint256"
        }
      ],
      "name": "ERC721NonexistentToken",
      "type": "error"
    },
    {
      "inputs": [
        {
          "internalType": "address",
          "name": "owner",
          "type": "address"
        }
      ],
      "name": "OwnableInvalidOwner",
      "type": "error"
    },
    {
      "inputs": [
        {
          "internalType": "address",
          "name": "account",
          "type": "address"
        }
      ],
      "name": "OwnableUnauthorizedAccount",
      "type": "error"
    },
    {
      "anonymous": false,
      "inputs": [
        {
          "indexed": true,
          "internalType": "address",
          "name": "owner",
          "type": "address"
        },
        {
          "indexed": true,
          "internalType": "address",
          "name": "approved",
          "type": "address"
        },
        {
          "indexed": true,
          "internalType": "uint256",
          "name": "tokenId",
          "type": "uint256"
        }
      ],
      "name": "Approval",
      "type": "event"
    },
    {
      "anonymous": false,
      "inputs": [
        {
          "indexed": true,
          "internalType": "address",
          "name": "owner",
          "type": "address"
        },
        {
          "indexed": true,
          "internalType": "address",
          "name": "operator",
          "type": "address"
        },
        {
          "indexed": false,
          "internalType": "bool",
          "name": "approved",
          "type": "bool"
        }
      ],
      "name": "ApprovalForAll",
      "type": "event"
    },
    {
      "anonymous": false,
      "inputs": [
        {
          "indexed": true,
          "internalType": "address",
          "name": "previousOwner",
          "type": "address"
        },
        {
          "indexed": true,
          "internalType": "address",
          "name": "newOwner",
          "type": "address"
        }
      ],
      "name": "OwnershipTransferStarted",
      "type": "event"
    },
    {
      "anonymous": false,
      "inputs": [
        {
          "indexed": true,
          "internalType": "address",
          "name": "previousOwner",
          "type": "address"
        },
        {
          "indexed": true,
          "internalType": "address",
          "name": "newOwner",
          "type": "address"
        }
      ],
      "name": "OwnershipTransferred",
      "type": "event"
    },
    {
      "anonymous": false,
      "inputs": [
        {
          "indexed": true,
          "internalType": "address",
          "name": "from",
          "type": "address"
        },
        {
          "indexed": true,
          "internalType": "address",
          "name": "to",
          "type": "address"
        },
        {
          "indexed": true,
          "internalType": "uint256",
          "name": "tokenId",
          "type": "uint256"
        }
      ],
      "name": "Transfer",
      "type": "event"
    },
    {
      "inputs": [],
      "name": "acceptOwnership",
      "outputs": [],
      "stateMutability": "nonpayable",
      "type": "function"
    },
    {
      "inputs": [
        {
          "internalType": "address",
          "name": "to",
          "type": "address"
        },
        {
          "internalType": "uint256",
          "name": "tokenId",
          "type": "uint256"
        }
      ],
      "name": "approve",
      "outputs": [],
      "stateMutability": "nonpayable",
      "type": "function"
    },
    {
      "inputs": [
        {
          "internalType": "address",
          "name": "owner",
          "type": "address"
        }
      ],
      "name": "balanceOf",
      "outputs": [
        {
          "internalType": "uint256",
          "name": "",
          "type": "uint256"
        }
      ],
      "stateMutability": "view",
      "type": "function"
    },
    {
      "inputs": [
        {
          "internalType": "uint256",
          "name": "tokenId",
          "type": "uint256"
        }
      ],
      "name": "getApproved",
      "outputs": [
        {
          "internalType": "address",
          "name": "",
          "type": "address"
        }
      ],
      "stateMutability": "view",
      "type": "function"
    },
    {
      "inputs": [
        {
          "internalType": "address",
          "name": "owner",
          "type": "address"
        },
        {
          "internalType": "address",
          "name": "operator",
          "type": "address"
        }
      ],
      "name": "isApprovedForAll",
      "outputs": [
        {
          "internalType": "bool",
          "name": "",
          "type": "bool"
        }
      ],
      "stateMutability": "view",
      "type": "function"
    },
    {
      "inputs": [
        {
          "internalType": "address",
          "name": "user",
          "type": "address"
        }
      ],
      "name": "mintSoul",
      "outputs": [
        {
          "internalType": "uint256",
          "name": "",
          "type": "uint256"
        }
      ],
      "stateMutability": "nonpayable",
      "type": "function"
    },
    {
      "inputs": [],
      "name": "name",
      "outputs": [
        {
          "internalType": "string",
          "name": "",
          "type": "string"
        }
      ],
      "stateMutability": "view",
      "type": "function"
    },
    {
      "inputs": [],
      "name": "owner",
      "outputs": [
        {
          "internalType": "address",
          "name": "",
          "type": "address"
        }
      ],
      "stateMutability": "view",
      "type": "function"
    },
    {
      "inputs": [
        {
          "internalType": "uint256",
          "name": "tokenId",
          "type": "uint256"
        }
      ],
      "name": "ownerOf",
      "outputs": [
        {
          "internalType": "address",
          "name": "",
          "type": "address"
        }
      ],
      "stateMutability": "view",
      "type": "function"
    },
    {
      "inputs": [],
      "name": "pendingOwner",
      "outputs": [
        {
          "internalType": "address",
          "name": "",
          "type": "address"
        }
      ],
      "stateMutability": "view",
      "type": "function"
    },
    {
      "inputs": [],
      "name": "renounceOwnership",
      "outputs": [],
      "stateMutability": "nonpayable",
      "type": "function"
    },
    {
      "inputs": [
        {
          "internalType": "address",
          "name": "from",
          "type": "address"
        },
        {
          "internalType": "address",
          "name": "to",
          "type": "address"
        },
        {
          "internalType": "uint256",
          "name": "tokenId",
          "type": "uint256"
        }
      ],
      "name": "safeTransferFrom",
      "outputs": [],
      "stateMutability": "nonpayable",
      "type": "function"
    },
    {
      "inputs": [
        {
          "internalType": "address",
          "name": "from",
          "type": "address"
        },
        {
          "internalType": "address",
          "name": "to",
          "type": "address"
        },
        {
          "internalType": "uint256",
          "name": "tokenId",
          "type": "uint256"
        },
        {
          "internalType": "bytes",
          "name": "data",
          "type": "bytes"
        }
      ],
      "name": "safeTransferFrom",
      "outputs": [],
      "stateMutability": "pure",
      "type": "function"
    },
    {
      "inputs": [
        {
          "internalType": "address",
          "name": "operator",
          "type": "address"
        },
        {
          "internalType": "bool",
          "name": "approved",
          "type": "bool"
        }
      ],
      "name": "setApprovalForAll",
      "outputs": [],
      "stateMutability": "nonpayable",
      "type": "function"
    },
    {
      "inputs": [
        {
          "internalType": "bytes4",
          "name": "interfaceId",
          "type": "bytes4"
        }
      ],
      "name": "supportsInterface",
      "outputs": [
        {
          "internalType": "bool",
          "name": "",
          "type": "bool"
        }
      ],
      "stateMutability": "view",
      "type": "function"
    },
    {
      "inputs": [],
      "name": "symbol",
      "outputs": [
        {
          "internalType": "string",
          "name": "",
          "type": "string"
        }
      ],
      "stateMutability": "view",
      "type": "function"
    },
    {
      "inputs": [
        {
          "internalType": "uint256",
          "name": "tokenId",
          "type": "uint256"
        }
      ],
      "name": "tokenURI",
      "outputs": [
        {
          "internalType": "string",
          "name": "",
          "type": "string"
        }
      ],
      "stateMutability": "view",
      "type": "function"
    },
    {
      "inputs": [
        {
          "internalType": "address",
          "name": "from",
          "type": "address"
        },
        {
          "internalType": "address",
          "name": "to",
          "type": "address"
        },
        {
          "internalType": "uint256",
          "name": "tokenId",
          "type": "uint256"
        }
      ],
      "name": "transferFrom",
      "outputs": [],
      "stateMutability": "pure",
      "type": "function"
    },
    {
      "inputs": [
        {
          "internalType": "address",
          "name": "newOwner",
          "type": "address"
        }
      ],
      "name": "transferOwnership",
      "outputs": [],
      "stateMutability": "nonpayable",
      "type": "function"
    }
  ],
  "bytecode": "0x60806040523480156200001157600080fd5b503360405180604001604052806009815260200168151a5d994814dbdd5b60ba1b815250604051806040016040528060058152602001641514d3d55360da1b8152508160009081620000649190620001cc565b506001620000738282620001cc565b5050506001600160a01b038116620000a557604051631e4fbdf760e01b81526000600482015260240160405180910390fd5b620000b081620000b7565b5062000298565b600780546001600160a01b0319169055620000d281620000d5565b50565b600680546001600160a01b038381166001600160a01b0319831681179093556040519116919082907f8be0079c531659141344cd1fd0a4f28419497f9722a3daafe3b4186f6b6457e090600090a35050565b634e487b7160e01b600052604160045260246000fd5b600181811c908216806200015257607f821691505b6020821081036200017357634e487b7160e01b600052602260045260246000fd5b50919050565b601f821115620001c757600081815260208120601f850160051c81016020861015620001a25750805b601f850160051c820191505b81811015620001c357828155600101620001ae565b5050505b505050565b81516001600160401b03811115620001e857620001e862000127565b6200020081620001f984546200013d565b8462000179565b602080601f8311600181146200023857600084156200021f5750858301515b600019600386901b1c1916600185901b178555620001c3565b600085815260208120601f198616915b82811015620002695788860151825594840194600190910190840162000248565b5085821015620002885787850151600019600388901b60f8161c191681555b5050505050600190811b01905550565b61108780620002a86000396000f3fe608060405234801561001057600080fd5b50600436106101215760003560e01c806379ba5097116100ad578063c87b56dd11610071578063c87b56dd14610247578063d62473cb1461025a578063e30c39781461026d578063e985e9c51461027e578063f2fde38b1461029157600080fd5b806379ba5097146102055780638da5cb5b1461020d57806395d89b411461021e578063a22cb46514610226578063b88d4fde1461023957600080fd5b806323b872dd116100f457806323b872dd146101a357806342842e0e146101b65780636352211e146101c957806370a08231146101dc578063715018a6146101fd57600080fd5b806301ffc9a71461012657806306fdde031461014e578063081812fc14610163578063095ea7b31461018e575b600080fd5b610139610134366004610d55565b6102a4565b60405190151581526020015b60405180910390f35b6101566102f6565b6040516101459190610da3565b610176610171366004610dd6565b610388565b6040516001600160a01b039091168152602001610145565b6101a161019c366004610e06565b6103b1565b005b6101a16101b1366004610e30565b6103c0565b6101a16101c4366004610e30565b610405565b6101766101d7366004610dd6565b610425565b6101ef6101ea366004610e6c565b610430565b604051908152602001610145565b6101a1610478565b6101a161048c565b6006546001600160a01b0316610176565b6101566104d0565b6101a1610234366004610e87565b6104df565b6101a16101b1366004610ed9565b610156610255366004610dd6565b6104ea565b6101ef610268366004610e6c565b61055f565b6007546001600160a01b0316610176565b61013961028c366004610fb5565b6105fc565b6101a161029f366004610e6c565b61062a565b60006001600160e01b031982166380ac58cd60e01b14806102d557506001600160e01b03198216635b5e139f60e01b145b806102f057506301ffc9a760e01b6001600160e01b03198316145b92915050565b60606000805461030590610fe8565b80601f016020809104026020016040519081016040528092919081815260200182805461033190610fe8565b801561037e5780601f106103535761010080835404028352916020019161037e565b820191906000526020600020905b81548152906001019060200180831161036157829003601f168201915b5050505050905090565b60006103938261069b565b506000828152600460205260409020546001600160a01b03166102f0565b6103bc8282336106d4565b5050565b60405162461bcd60e51b81526020600482015260156024820152745342543a204e6f6e2d7472616e7366657261626c6560581b60448201526064015b60405180910390fd5b610420838383604051806020016040528060008152506103c0565b505050565b60006102f08261069b565b60006001600160a01b03821661045c576040516322718ad960e21b8152600060048201526024016103fc565b506001600160a01b031660009081526003602052604090205490565b6104806106e1565b61048a600061070e565b565b60075433906001600160a01b031681146104c45760405163118cdaa760e01b81526001600160a01b03821660048201526024016103fc565b6104cd8161070e565b50565b60606001805461030590610fe8565b6103bc338383610727565b60606104f58261069b565b50600061050d60408051602081019091526000815290565b9050600081511161052d5760405180602001604052806000815250610558565b80610537846107c6565b604051602001610548929190611022565b6040516020818303038152906040525b9392505050565b60006105696106e1565b6001600160a01b0382166000610594826000908152600260205260409020546001600160a01b031690565b6001600160a01b0316146105ea5760405162461bcd60e51b815260206004820152601860248201527f5342543a20536f756c20616c7265616479206d696e746564000000000000000060448201526064016103fc565b6105f48382610859565b90505b919050565b6001600160a01b03918216600090815260056020908152604080832093909416825291909152205460ff1690565b6106326106e1565b600780546001600160a01b0383166001600160a01b031990911681179091556106636006546001600160a01b031690565b6001600160a01b03167f38d16b8cac22d99fc7c124b9cd0de2d3fa1faef420bfe791d8c362d765e2270060405160405180910390a350565b6000818152600260205260408120546001600160a01b0316806105f457604051637e27328960e01b8152600481018490526024016103fc565b61042083838360016108be565b6006546001600160a01b0316331461048a5760405163118cdaa760e01b81523360048201526024016103fc565b600780546001600160a01b03191690556104cd816109c4565b6001600160a01b03821661075957604051630b61174360e31b81526001600160a01b03831660048201526024016103fc565b6001600160a01b03838116600081815260056020908152604080832094871680845294825291829020805460ff191686151590811790915591519182527f17307eab39ab6107e8899845ad3d59bd9653f200f220920489ca2b5937696c31910160405180910390a3505050565b606060006107d383610a16565b600101905060008167ffffffffffffffff8111156107f3576107f3610ec3565b6040519080825280601f01601f19166020018201604052801561081d576020820181803683370190505b5090508181016020015b600019016f181899199a1a9b1b9c1cb0b131b232b360811b600a86061a8153600a850494508461082757509392505050565b6001600160a01b03821661088357604051633250574960e11b8152600060048201526024016103fc565b600061089183836000610aee565b90506001600160a01b03811615610420576040516339e3563760e11b8152600060048201526024016103fc565b80806108d257506001600160a01b03821615155b156109945760006108e28461069b565b90506001600160a01b0383161580159061090e5750826001600160a01b0316816001600160a01b031614155b8015610921575061091f81846105fc565b155b1561094a5760405163a9fbf51f60e01b81526001600160a01b03841660048201526024016103fc565b81156109925783856001600160a01b0316826001600160a01b03167f8c5be1e5ebec7d5bd14f71427d1e84f3dd0314c0f7b2291e5b200ac8c7c3b92560405160405180910390a45b505b5050600090815260046020526040902080546001600160a01b0319166001600160a01b0392909216919091179055565b600680546001600160a01b038381166001600160a01b0319831681179093556040519116919082907f8be0079c531659141344cd1fd0a4f28419497f9722a3daafe3b4186f6b6457e090600090a35050565b60008072184f03e93ff9f4daa797ed6e38ed64bf6a1f0160401b8310610a555772184f03e93ff9f4daa797ed6e38ed64bf6a1f0160401b830492506040015b6d04ee2d6d415b85acef81000000008310610a81576d04ee2d6d415b85acef8100000000830492506020015b662386f26fc100008310610a9f57662386f26fc10000830492506010015b6305f5e1008310610ab7576305f5e100830492506008015b6127108310610acb57612710830492506004015b60648310610add576064830492506002015b600a83106105f45760010192915050565b6000828152600260205260408120546001600160a01b03168015801590610b1d57506001600160a01b03851615155b15610b7e5760405162461bcd60e51b815260206004820152602b60248201527f5342543a20536f756c626f756e6420746f6b656e732063616e6e6f742062652060448201526a1d1c985b9cd9995c9c995960aa1b60648201526084016103fc565b610b89858585610b92565b95945050505050565b6000828152600260205260408120546001600160a01b0390811690831615610bbf57610bbf818486610c8b565b6001600160a01b03811615610bfd57610bdc6000856000806108be565b6001600160a01b038116600090815260036020526040902080546000190190555b6001600160a01b03851615610c2c576001600160a01b0385166000908152600360205260409020805460010190555b60008481526002602052604080822080546001600160a01b0319166001600160a01b0389811691821790925591518793918516917fddf252ad1be2c89b69c2b068fc378daa952ba7f163c4a11628f55a4df523b3ef91a4949350505050565b610c96838383610cef565b610420576001600160a01b038316610cc457604051637e27328960e01b8152600481018290526024016103fc565b60405163177e802f60e01b81526001600160a01b0383166004820152602481018290526044016103fc565b60006001600160a01b03831615801590610d4d5750826001600160a01b0316846001600160a01b03161480610d295750610d2984846105fc565b80610d4d57506000828152600460205260409020546001600160a01b038481169116145b949350505050565b600060208284031215610d6757600080fd5b81356001600160e01b03198116811461055857600080fd5b60005b83811015610d9a578181015183820152602001610d82565b50506000910152565b6020815260008251806020840152610dc2816040850160208701610d7f565b601f01601f19169190910160400192915050565b600060208284031215610de857600080fd5b5035919050565b80356001600160a01b03811681146105f757600080fd5b60008060408385031215610e1957600080fd5b610e2283610def565b946020939093013593505050565b600080600060608486031215610e4557600080fd5b610e4e84610def565b9250610e5c60208501610def565b9150604084013590509250925092565b600060208284031215610e7e57600080fd5b61055882610def565b60008060408385031215610e9a57600080fd5b610ea383610def565b915060208301358015158114610eb857600080fd5b809150509250929050565b634e487b7160e01b600052604160045260246000fd5b60008060008060808587031215610eef57600080fd5b610ef885610def565b9350610f0660208601610def565b925060408501359150606085013567ffffffffffffffff80821115610f2a57600080fd5b818701915087601f830112610f3e57600080fd5b813581811115610f5057610f50610ec3565b604051601f8201601f19908116603f01168101908382118183101715610f7857610f78610ec3565b816040528281528a6020848701011115610f9157600080fd5b82602086016020830137600060208483010152809550505050505092959194509250565b60008060408385031215610fc857600080fd5b610fd183610def565b9150610fdf60208401610def565b90509250929050565b600181811c90821680610ffc57607f821691505b60208210810361101c57634e487b7160e01b600052602260045260246000fd5b50919050565b60008351611034818460208801610d7f565b835190830190611048818360208801610d7f565b0194935050505056fea26469706673582212209b178f035320d7dd5c483d70622edcc0fb146de3702378751e5e5b257078146964736f6c63430008140033",
  "linkReferences": {},
  "deployedLinkReferences": {}
}