{
  "_format": "hh-sol-artifact-1",
  "contractName": "AtomicMint",
  "sourceName": "contracts/AtomicMint.sol",
  "abi": [
    {
      "inputs": [
        {
          "internalType": "address",
          "name": "_sbt",
          "type": "address"
        },
        {
          "internalType": "address",
          "name": "_tbaFactory",
          "type": "address"
        },
        {
          "internalType": "address",
          "name": "_oke",
          "type": "address"
        },
        {
          "internalType": "address",
          "name": "_verifier",
          "type": "address"
        }
      ],
      "stateMutability": "nonpayable",
      "type": "constructor"
    },
    {
      "inputs": [],
      "name": "EnforcedPause",
      "type": "error"
    },
    {
      "inputs": [],
      "name": "ExpectedPause",
      "type": "error"
    },
    {
      "inputs": [
        {
          "internalType": "address",
          "name": "owner",
          "type": "address"
        }
      ],
      "name": "OwnableInvalidOwner",
      "type": "error"
    },
    {
      "inputs": [
        {
          "internalType": "address",
          "name": "account",
          "type": "address"
        }
      ],
      "name": "OwnableUnauthorizedAccount",
      "type": "error"
    },
    {
      "inputs": [],
      "name": "ReentrancyGuardReentrantCall",
      "type": "error"
    },
    {
      "anonymous": false,
      "inputs": [
        {
          "indexed": true,
          "internalType": "address",
          "name": "user",
          "type": "address"
        },
        {
          "indexed": false,
          "internalType": "uint256",
          "name": "sbtId",
          "type": "uint256"
        },
        {
          "indexed": false,
          "internalType": "uint256",
          "name": "nftId",
          "type": "uint256"
        },
        {
          "indexed": false,
          "internalType": "address",
          "name": "tbaAddress",
          "type": "address"
        },
        {
          "indexed": false,
          "internalType": "string",
          "name": "metadataURI",
          "type": "string"
        }
      ],
      "name": "AtomicMinted",
      "type": "event"
    },
    {
      "anonymous": false,
      "inputs": [
        {
          "indexed": true,
          "internalType": "address",
          "name": "previousOwner",
          "type": "address"
        },
        {
          "indexed": true,
          "internalType": "address",
          "name": "newOwner",
          "type": "address"
        }
      ],
      "name": "OwnershipTransferStarted",
      "type": "event"
    },
    {
      "anonymous": false,
      "inputs": [
        {
          "indexed": true,
          "internalType": "address",
          "name": "previousOwner",
          "type": "address"
        },
        {
          "indexed": true,
          "internalType": "address",
          "name": "newOwner",
          "type": "address"
        }
      ],
      "name": "OwnershipTransferred",
      "type": "event"
    },
    {
      "anonymous": false,
      "inputs": [
        {
          "indexed": false,
          "internalType": "address",
          "name": "account",
          "type": "address"
        }
      ],
      "name": "Paused",
      "type": "event"
    },
    {
      "anonymous": false,
      "inputs": [
        {
          "indexed": false,
          "internalType": "address",
          "name": "account",
          "type": "address"
        }
      ],
      "name": "Unpaused",
      "type": "event"
    },
    {
      "inputs": [],
      "name": "acceptOwnership",
      "outputs": [],
      "stateMutability": "nonpayable",
      "type": "function"
    },
    {
      "inputs": [
        {
          "internalType": "address",
          "name": "user",
          "type": "address"
        },
        {
          "internalType": "string",
          "name": "metadataURI",
          "type": "string"
        },
        {
          "internalType": "bytes32",
          "name": "nullifier",
          "type": "bytes32"
        },
        {
          "internalType": "uint256[2]",
          "name": "a",
          "type": "uint256[2]"
        },
        {
          "internalType": "uint256[2][2]",
          "name": "b",
          "type": "uint256[2][2]"
        },
        {
          "internalType": "uint256[2]",
          "name": "c",
          "type": "uint256[2]"
        },
        {
          "internalType": "uint256[1]",
          "name": "input",
          "type": "uint256[1]"
        }
      ],
      "name": "mintWithProof",
      "outputs": [
        {
          "internalType": "uint256",
          "name": "sbtId",
          "type": "uint256"
        },
        {
          "internalType": "uint256",
          "name": "nftId",
          "type": "uint256"
        },
        {
          "internalType": "address",
          "name": "tba",
          "type": "address"
        }
      ],
      "stateMutability": "nonpayable",
      "type": "function"
    },
    {
      "inputs": [
        {
          "internalType": "bytes32",
          "name": "",
          "type": "bytes32"
        }
      ],
      "name": "nullifierUsed",
      "outputs": [
        {
          "internalType": "bool",
          "name": "",
          "type": "bool"
        }
      ],
      "stateMutability": "view",
      "type": "function"
    },
    {
      "inputs": [],
      "name": "oke",
      "outputs": [
        {
          "internalType": "contract OKE_NFT",
          "name": "",
          "type": "address"
        }
      ],
      "stateMutability": "view",
      "type": "function"
    },
    {
      "inputs": [],
      "name": "owner",
      "outputs": [
        {
          "internalType": "address",
          "name": "",
          "type": "address"
        }
      ],
      "stateMutability": "view",
      "type": "function"
    },
    {
      "inputs": [],
      "name": "pause",
      "outputs": [],
      "stateMutability": "nonpayable",
      "type": "function"
    },
    {
      "inputs": [],
      "name": "paused",
      "outputs": [
        {
          "internalType": "bool",
          "name": "",
          "type": "bool"
        }
      ],
      "stateMutability": "view",
      "type": "function"
    },
    {
      "inputs": [],
      "name": "pendingOwner",
      "outputs": [
        {
          "internalType": "address",
          "name": "",
          "type": "address"
        }
      ],
      "stateMutability": "view",
      "type": "function"
    },
    {
      "inputs": [],
      "name": "renounceOwnership",
      "outputs": [],
      "stateMutability": "nonpayable",
      "type": "function"
    },
    {
      "inputs": [],
      "name": "sbt",
      "outputs": [
        {
          "internalType": "contract SBT",
          "name": "",
          "type": "address"
        }
      ],
      "stateMutability": "view",
      "type": "function"
    },
    {
      "inputs": [
        {
          "internalType": "address",
          "name": "_verifier",
          "type": "address"
        }
      ],
      "name": "setVerifier",
      "outputs": [],
      "stateMutability": "nonpayable",
      "type": "function"
    },
    {
      "inputs": [],
      "name": "tbaFactory",
      "outputs": [
        {
          "internalType": "contract TBAFactory",
          "name": "",
          "type": "address"
        }
      ],
      "stateMutability": "view",
      "type": "function"
    },
    {
      "inputs": [
        {
          "internalType": "address",
          "name": "newOwner",
          "type": "address"
        }
      ],
      "name": "transferOwnership",
      "outputs": [],
      "stateMutability": "nonpayable",
      "type": "function"
    },
    {
      "inputs": [],
      "name": "unpause",
      "outputs": [],
      "stateMutability": "nonpayable",
      "type": "function"
    },
    {
      "inputs": [],
      "name": "verifier",
      "outputs": [
        {
          "internalType": "contract IVerifier",
          "name": "",
          "type": "address"
        }
      ],
      "stateMutability": "view",
      "type": "function"
    }
  ],
  "bytecode": "0x608060405234801561001057600080fd5b50604051610cea380380610cea83398101604081905261002f91610148565b338061005557604051631e4fbdf760e01b81526000600482015260240160405180910390fd5b61005e816100c0565b506001600255600380546001600160a01b0395861661010002610100600160a81b0319909116179055600480549385166001600160a01b031994851617905560058054928516928416929092179091556006805491909316911617905561019c565b600180546001600160a01b03191690556100d9816100dc565b50565b600080546001600160a01b038381166001600160a01b0319831681178455604051919092169283917f8be0079c531659141344cd1fd0a4f28419497f9722a3daafe3b4186f6b6457e09190a35050565b80516001600160a01b038116811461014357600080fd5b919050565b6000806000806080858703121561015e57600080fd5b6101678561012c565b93506101756020860161012c565b92506101836040860161012c565b91506101916060860161012c565b905092959194509250565b610b3f806101ab6000396000f3fe608060405234801561001057600080fd5b50600436106100f55760003560e01c80638230048011610097578063b650810911610066578063b6508109146101f9578063e30c39781461020c578063ed9ef7a01461021d578063f2fde38b1461023057600080fd5b806382300480146101915780638456cb59146101c85780638da5cb5b146101d0578063b1324f7b146101e157600080fd5b80635c975abb116100d35780635c975abb14610147578063715018a61461015e57806379ba5097146101665780637ecf686d1461016e57600080fd5b80632b7ac3f3146100fa5780633f4ba83a1461012a5780635437988d14610134575b600080fd5b60065461010d906001600160a01b031681565b6040516001600160a01b0390911681526020015b60405180910390f35b610132610243565b005b61013261014236600461082c565b610255565b60035460ff165b6040519015158152602001610121565b61013261027f565b610132610291565b61014e61017c366004610850565b60076020526000908152604090205460ff1681565b6101a461019f3660046108a2565b6102da565b6040805193845260208401929092526001600160a01b031690820152606001610121565b610132610602565b6000546001600160a01b031661010d565b60035461010d9061010090046001600160a01b031681565b60045461010d906001600160a01b031681565b6001546001600160a01b031661010d565b60055461010d906001600160a01b031681565b61013261023e36600461082c565b610612565b61024b610683565b6102536106b0565b565b61025d610683565b600680546001600160a01b0319166001600160a01b0392909216919091179055565b610287610683565b6102536000610702565b60015433906001600160a01b031681146102ce5760405163118cdaa760e01b81526001600160a01b03821660048201526024015b60405180910390fd5b6102d781610702565b50565b60008060006102e761071b565b6102ef610743565b60008881526007602052604090205460ff161561034e5760405162461bcd60e51b815260206004820152601b60248201527f5a4b503a204e756c6c696669657220616c72656164792075736564000000000060448201526064016102c5565b6006546040516343753b4d60e01b81526001600160a01b03909116906343753b4d90610384908a908a908a908a9060040161097a565b602060405180830381865afa1580156103a1573d6000803e3d6000fd5b505050506040513d601f19601f820116820180604052508101906103c591906109c6565b6104115760405162461bcd60e51b815260206004820152601860248201527f5a4b503a20566572696669636174696f6e206661696c6564000000000000000060448201526064016102c5565b60008881526007602052604090819020805460ff19166001179055600354905163d62473cb60e01b81526001600160a01b038d811660048301526101009092049091169063d62473cb906024016020604051808303816000875af115801561047d573d6000803e3d6000fd5b505050506040513d601f19601f820116820180604052508101906104a191906109e8565b6004805460035460405163114c63b160e01b815292830184905261010090046001600160a01b039081166024840152929550919091169063114c63b1906044016020604051808303816000875af1158015610500573d6000803e3d6000fd5b505050506040513d601f19601f820116820180604052508101906105249190610a01565b600554604051631fd53e8760e11b81529192506001600160a01b031690633faa7d0e9061055c908e908e908e90606490600401610a47565b6020604051808303816000875af115801561057b573d6000803e3d6000fd5b505050506040513d601f19601f8201168201806040525081019061059f91906109e8565b91508a6001600160a01b03167fde121cfb7485d2dd621954a03993982f679a9578e485265cf728d2cbc64bb0c38484848e8e6040516105e2959493929190610ad0565b60405180910390a26105f46001600255565b985098509895505050505050565b61060a610683565b610253610767565b61061a610683565b600180546001600160a01b0383166001600160a01b0319909116811790915561064b6000546001600160a01b031690565b6001600160a01b03167f38d16b8cac22d99fc7c124b9cd0de2d3fa1faef420bfe791d8c362d765e2270060405160405180910390a350565b6000546001600160a01b031633146102535760405163118cdaa760e01b81523360048201526024016102c5565b6106b86107a4565b6003805460ff191690557f5db9ee0a495bf2e6ff9c91a7834c1ba4fdd244a5e8aa4e537bd38aeae4b073aa335b6040516001600160a01b03909116815260200160405180910390a1565b600180546001600160a01b03191690556102d7816107c7565b600280540361073d57604051633ee5aeb560e01b815260040160405180910390fd5b60028055565b60035460ff16156102535760405163d93c066560e01b815260040160405180910390fd5b61076f610743565b6003805460ff191660011790557f62e78cea01bee320cd4e420270b5ea74000d11b0c9f74754ebdbfc544b05a2586106e53390565b60035460ff1661025357604051638dfc202b60e01b815260040160405180910390fd5b600080546001600160a01b038381166001600160a01b0319831681178455604051919092169283917f8be0079c531659141344cd1fd0a4f28419497f9722a3daafe3b4186f6b6457e09190a35050565b6001600160a01b03811681146102d757600080fd5b60006020828403121561083e57600080fd5b813561084981610817565b9392505050565b60006020828403121561086257600080fd5b5035919050565b806040810183101561087a57600080fd5b92915050565b806080810183101561087a57600080fd5b806020810183101561087a57600080fd5b600080600080600080600080610180898b0312156108bf57600080fd5b88356108ca81610817565b9750602089013567ffffffffffffffff808211156108e757600080fd5b818b0191508b601f8301126108fb57600080fd5b81358181111561090a57600080fd5b8c602082850101111561091c57600080fd5b6020830199508098505050506040890135945061093c8a60608b01610869565b935061094b8a60a08b01610880565b925061095b8a6101208b01610869565b915061096b8a6101608b01610891565b90509295985092959890939650565b61012081016040808784378083018660005b60028110156109a95783828437918301919083019060010161098c565b505050808560c08501375060208361010084013795945050505050565b6000602082840312156109d857600080fd5b8151801515811461084957600080fd5b6000602082840312156109fa57600080fd5b5051919050565b600060208284031215610a1357600080fd5b815161084981610817565b81835281816020850137506000828201602090810191909152601f909101601f19169091010190565b6001600160a01b038516815260a060208201819052600090610a6c9083018587610a1e565b828103806040850152601082526f105d1bdb5a58c8135a5b9d08119858dd60821b602083015284606085015260408101608085015250600e60408201526d24b734ba34b0b634bd30ba34b7b760911b60608201526080810191505095945050505050565b85815284602082015260018060a01b0384166040820152608060608201526000610afe608083018486610a1e565b97965050505050505056fea26469706673582212200a70d043c288bb7414de5e299720c8d1cb170e14b4540899c182c3794d78a50b64736f6c63430008140033",
  "linkReferences": {},
  "deployedLinkReferences": {}
}