{
  "_format": "hh-sol-artifact-1",
  "contractName": "AgentIdentity",
  "sourceName": "contracts/AgentIdentity.sol",
  "abi": [
    {
      "inputs": [
        {
          "internalType": "address",
          "name": "_usdc",
          "type": "address"
        }
      ],
      "stateMutability": "nonpayable",
      "type": "constructor"
    },
    {
      "inputs": [],
      "name": "AccessControlBadConfirmation",
      "type": "error"
    },
    {
      "inputs": [
        {
          "internalType": "address",
          "name": "account",
          "type": "address"
        },
        {
          "internalType": "bytes32",
          "name": "neededRole",
          "type": "bytes32"
        }
      ],
      "name": "AccessControlUnauthorizedAccount",
      "type": "error"
    },
    {
      "anonymous": false,
      "inputs": [
        {
          "indexed": true,
          "internalType": "address",
          "name": "agent",
          "type": "address"
        },
        {
          "indexed": false,
          "internalType": "string",
          "name": "actionType",
          "type": "string"
        },
        {
          "indexed": false,
          "internalType": "uint256",
          "name": "amount",
          "type": "uint256"
        }
      ],
      "name": "AgentAction",
      "type": "event"
    },
    {
      "anonymous": false,
      "inputs": [
        {
          "indexed": true,
          "internalType": "bytes32",
          "name": "role",
          "type": "bytes32"
        },
        {
          "indexed": true,
          "internalType": "bytes32",
          "name": "previousAdminRole",
          "type": "bytes32"
        },
        {
          "indexed": true,
          "internalType": "bytes32",
          "name": "newAdminRole",
          "type": "bytes32"
        }
      ],
      "name": "RoleAdminChanged",
      "type": "event"
    },
    {
      "anonymous": false,
      "inputs": [
        {
          "indexed": true,
          "internalType": "bytes32",
          "name": "role",
          "type": "bytes32"
        },
        {
          "indexed": true,
          "internalType": "address",
          "name": "account",
          "type": "address"
        },
        {
          "indexed": true,
          "internalType": "address",
          "name": "sender",
          "type": "address"
        }
      ],
      "name": "RoleGranted",
      "type": "event"
    },
    {
      "anonymous": false,
      "inputs": [
        {
          "indexed": true,
          "internalType": "bytes32",
          "name": "role",
          "type": "bytes32"
        },
        {
          "indexed": true,
          "internalType": "address",
          "name": "account",
          "type": "address"
        },
        {
          "indexed": true,
          "internalType": "address",
          "name": "sender",
          "type": "address"
        }
      ],
      "name": "RoleRevoked",
      "type": "event"
    },
    {
      "inputs": [],
      "name": "AGENT_ROLE",
      "outputs": [
        {
          "internalType": "bytes32",
          "name": "",
          "type": "bytes32"
        }
      ],
      "stateMutability": "view",
      "type": "function"
    },
    {
      "inputs": [],
      "name": "DEFAULT_ADMIN_ROLE",
      "outputs": [
        {
          "internalType": "bytes32",
          "name": "",
          "type": "bytes32"
        }
      ],
      "stateMutability": "view",
      "type": "function"
    },
    {
      "inputs": [
        {
          "internalType": "address",
          "name": "",
          "type": "address"
        }
      ],
      "name": "agents",
      "outputs": [
        {
          "internalType": "string",
          "name": "name",
          "type": "string"
        },
        {
          "internalType": "uint256",
          "name": "reputation",
          "type": "uint256"
        },
        {
          "internalType": "uint256",
          "name": "dailyLimit",
          "type": "uint256"
        },
        {
          "internalType": "uint256",
          "name": "spentToday",
          "type": "uint256"
        },
        {
          "internalType": "uint256",
          "name": "lastReset",
          "type": "uint256"
        }
      ],
      "stateMutability": "view",
      "type": "function"
    },
    {
      "inputs": [
        {
          "internalType": "address",
          "name": "_recipient",
          "type": "address"
        },
        {
          "internalType": "uint256",
          "name": "_amount",
          "type": "uint256"
        },
        {
          "internalType": "string",
          "name": "_reason",
          "type": "string"
        }
      ],
      "name": "executePayment",
      "outputs": [],
      "stateMutability": "nonpayable",
      "type": "function"
    },
    {
      "inputs": [
        {
          "internalType": "bytes32",
          "name": "role",
          "type": "bytes32"
        }
      ],
      "name": "getRoleAdmin",
      "outputs": [
        {
          "internalType": "bytes32",
          "name": "",
          "type": "bytes32"
        }
      ],
      "stateMutability": "view",
      "type": "function"
    },
    {
      "inputs": [
        {
          "internalType": "bytes32",
          "name": "role",
          "type": "bytes32"
        },
        {
          "internalType": "address",
          "name": "account",
          "type": "address"
        }
      ],
      "name": "grantRole",
      "outputs": [],
      "stateMutability": "nonpayable",
      "type": "function"
    },
    {
      "inputs": [
        {
          "internalType": "bytes32",
          "name": "role",
          "type": "bytes32"
        },
        {
          "internalType": "address",
          "name": "account",
          "type": "address"
        }
      ],
      "name": "hasRole",
      "outputs": [
        {
          "internalType": "bool",
          "name": "",
          "type": "bool"
        }
      ],
      "stateMutability": "view",
      "type": "function"
    },
    {
      "inputs": [
        {
          "internalType": "address",
          "name": "_agentAddress",
          "type": "address"
        },
        {
          "internalType": "string",
          "name": "_name",
          "type": "string"
        },
        {
          "internalType": "uint256",
          "name": "_limit",
          "type": "uint256"
        }
      ],
      "name": "registerAgent",
      "outputs": [],
      "stateMutability": "nonpayable",
      "type": "function"
    },
    {
      "inputs": [
        {
          "internalType": "bytes32",
          "name": "role",
          "type": "bytes32"
        },
        {
          "internalType": "address",
          "name": "callerConfirmation",
          "type": "address"
        }
      ],
      "name": "renounceRole",
      "outputs": [],
      "stateMutability": "nonpayable",
      "type": "function"
    },
    {
      "inputs": [
        {
          "internalType": "bytes32",
          "name": "role",
          "type": "bytes32"
        },
        {
          "internalType": "address",
          "name": "account",
          "type": "address"
        }
      ],
      "name": "revokeRole",
      "outputs": [],
      "stateMutability": "nonpayable",
      "type": "function"
    },
    {
      "inputs": [
        {
          "internalType": "bytes4",
          "name": "interfaceId",
          "type": "bytes4"
        }
      ],
      "name": "supportsInterface",
      "outputs": [
        {
          "internalType": "bool",
          "name": "",
          "type": "bool"
        }
      ],
      "stateMutability": "view",
      "type": "function"
    },
    {
      "inputs": [],
      "name": "usdcToken",
      "outputs": [
        {
          "internalType": "contract IERC20",
          "name": "",
          "type": "address"
        }
      ],
      "stateMutability": "view",
      "type": "function"
    }
  ],
  "bytecode": "0x608060405234801561001057600080fd5b50604051610e06380380610e0683398101604081905261002f9161010c565b61003a600033610060565b50600280546001600160a01b0319166001600160a01b039290921691909117905561013c565b6000828152602081815260408083206001600160a01b038516845290915281205460ff16610102576000838152602081815260408083206001600160a01b03861684529091529020805460ff191660011790556100ba3390565b6001600160a01b0316826001600160a01b0316847f2f8788117e7eff1d82e926ec794901d17c78024a50270940304540a733656f0d60405160405180910390a4506001610106565b5060005b92915050565b60006020828403121561011e57600080fd5b81516001600160a01b038116811461013557600080fd5b9392505050565b610cbb8061014b6000396000f3fe608060405234801561001057600080fd5b50600436106100b45760003560e01c806336568abe1161007157806336568abe1461018c57806391d148541461019f578063a217fddf146101b2578063b185404f146101ba578063d547741f146101cd578063fd66091e146101e057600080fd5b806301ffc9a7146100b957806311eac855146100e1578063184db5f21461010c57806322459e1814610121578063248a9ca3146101565780632f2ff15d14610179575b600080fd5b6100cc6100c7366004610844565b610204565b60405190151581526020015b60405180910390f35b6002546100f4906001600160a01b031681565b6040516001600160a01b0390911681526020016100d8565b61011f61011a366004610934565b61023b565b005b6101487fcab5a0bfe0b79d2c4b1c2e02599fa044d115b7511f9659307cb427695096770981565b6040519081526020016100d8565b61014861016436600461098b565b60009081526020819052604090206001015490565b61011f6101873660046109a4565b6102f2565b61011f61019a3660046109a4565b61031d565b6100cc6101ad3660046109a4565b610355565b610148600081565b61011f6101c83660046109d0565b61037e565b61011f6101db3660046109a4565b610622565b6101f36101ee366004610a27565b610647565b6040516100d8959493929190610a88565b60006001600160e01b03198216637965db0b60e01b148061023557506301ffc9a760e01b6001600160e01b03198316145b92915050565b6000610246816106fd565b6102707fcab5a0bfe0b79d2c4b1c2e02599fa044d115b7511f9659307cb42769509677098561070a565b506040805160a08101825284815260646020808301919091528183018590526000606083018190524260808401526001600160a01b0388168152600190915291909120815181906102c19082610b47565b5060208201516001820155604082015160028201556060820151600382015560809091015160049091015550505050565b60008281526020819052604090206001015461030d816106fd565b610317838361070a565b50505050565b6001600160a01b03811633146103465760405163334bd91960e11b815260040160405180910390fd5b610350828261079c565b505050565b6000918252602082815260408084206001600160a01b0393909316845291905290205460ff1690565b7fcab5a0bfe0b79d2c4b1c2e02599fa044d115b7511f9659307cb42769509677096103a8816106fd565b33600090815260016020526040902060048101546103c99062015180610c07565b4211156103de57600060038201554260048201555b80600201548482600301546103f39190610c07565b111561043d5760405162461bcd60e51b815260206004820152601460248201527311185a5b1e481b1a5b5a5d08195e18d95959195960621b60448201526064015b60405180910390fd5b6002546040516370a0823160e01b815230600482015285916001600160a01b0316906370a0823190602401602060405180830381865afa158015610485573d6000803e3d6000fd5b505050506040513d601f19601f820116820180604052508101906104a99190610c28565b10156104f75760405162461bcd60e51b815260206004820152601b60248201527f496e73756666696369656e742066756e647320696e205661756c7400000000006044820152606401610434565b8381600301600082825461050b9190610c07565b909155505060025460405163a9059cbb60e01b81526001600160a01b038781166004830152602482018790529091169063a9059cbb906044016020604051808303816000875af1158015610563573d6000803e3d6000fd5b505050506040513d601f19601f820116820180604052508101906105879190610c41565b6105c55760405162461bcd60e51b815260206004820152600f60248201526e151c985b9cd9995c8819985a5b1959608a1b6044820152606401610434565b60018160010160008282546105da9190610c07565b909155505060405133907f60ca317dd9a138b5053cd0945445bb821a345627d1cf401a6ee88648f715a13b906106139086908890610c63565b60405180910390a25050505050565b60008281526020819052604090206001015461063d816106fd565b610317838361079c565b60016020526000908152604090208054819061066290610abf565b80601f016020809104026020016040519081016040528092919081815260200182805461068e90610abf565b80156106db5780601f106106b0576101008083540402835291602001916106db565b820191906000526020600020905b8154815290600101906020018083116106be57829003601f168201915b5050505050908060010154908060020154908060030154908060040154905085565b6107078133610807565b50565b60006107168383610355565b610794576000838152602081815260408083206001600160a01b03861684529091529020805460ff1916600117905561074c3390565b6001600160a01b0316826001600160a01b0316847f2f8788117e7eff1d82e926ec794901d17c78024a50270940304540a733656f0d60405160405180910390a4506001610235565b506000610235565b60006107a88383610355565b15610794576000838152602081815260408083206001600160a01b0386168085529252808320805460ff1916905551339286917ff6391f5c32d9c69d2a47ea670b442974b53935d1edc7fd64eb21e047a839171b9190a4506001610235565b6108118282610355565b6108405760405163e2517d3f60e01b81526001600160a01b038216600482015260248101839052604401610434565b5050565b60006020828403121561085657600080fd5b81356001600160e01b03198116811461086e57600080fd5b9392505050565b80356001600160a01b038116811461088c57600080fd5b919050565b634e487b7160e01b600052604160045260246000fd5b600082601f8301126108b857600080fd5b813567ffffffffffffffff808211156108d3576108d3610891565b604051601f8301601f19908116603f011681019082821181831017156108fb576108fb610891565b8160405283815286602085880101111561091457600080fd5b836020870160208301376000602085830101528094505050505092915050565b60008060006060848603121561094957600080fd5b61095284610875565b9250602084013567ffffffffffffffff81111561096e57600080fd5b61097a868287016108a7565b925050604084013590509250925092565b60006020828403121561099d57600080fd5b5035919050565b600080604083850312156109b757600080fd5b823591506109c760208401610875565b90509250929050565b6000806000606084860312156109e557600080fd5b6109ee84610875565b925060208401359150604084013567ffffffffffffffff811115610a1157600080fd5b610a1d868287016108a7565b9150509250925092565b600060208284031215610a3957600080fd5b61086e82610875565b6000815180845260005b81811015610a6857602081850181015186830182015201610a4c565b506000602082860101526020601f19601f83011685010191505092915050565b60a081526000610a9b60a0830188610a42565b90508560208301528460408301528360608301528260808301529695505050505050565b600181811c90821680610ad357607f821691505b602082108103610af357634e487b7160e01b600052602260045260246000fd5b50919050565b601f82111561035057600081815260208120601f850160051c81016020861015610b205750805b601f850160051c820191505b81811015610b3f57828155600101610b2c565b505050505050565b815167ffffffffffffffff811115610b6157610b61610891565b610b7581610b6f8454610abf565b84610af9565b602080601f831160018114610baa5760008415610b925750858301515b600019600386901b1c1916600185901b178555610b3f565b600085815260208120601f198616915b82811015610bd957888601518255948401946001909101908401610bba565b5085821015610bf75787850151600019600388901b60f8161c191681555b5050505050600190811b01905550565b8082018082111561023557634e487b7160e01b600052601160045260246000fd5b600060208284031215610c3a57600080fd5b5051919050565b600060208284031215610c5357600080fd5b8151801515811461086e57600080fd5b604081526000610c766040830185610a42565b9050826020830152939250505056fea264697066735822122075043aaa1d39b93030613eb4d9273f28d28a1176e3a69cf7f04d84284d36483764736f6c63430008140033",
  "linkReferences": {},
  "deployedLinkReferences": {}
}