{
  "_format": "hh-sol-artifact-1",
  "contractName": "SoulPointSBT",
  "sourceName": "contracts/SoulPointSBT.sol",
  "abi": [
    {
      "inputs": [],
      "stateMutability": "nonpayable",
      "type": "constructor"
    },
    {
      "inputs": [
        {
          "internalType": "address",
          "name": "sender",
          "type": "address"
        },
        {
          "internalType": "uint256",
          "name": "tokenId",
          "type": "uint256"
        },
        {
          "internalType": "address",
          "name": "owner",
          "type": "address"
        }
      ],
      "name": "ERC721IncorrectOwner",
      "type": "error"
    },
    {
      "inputs": [
        {
          "internalType": "address",
          "name": "operator",
          "type": "address"
        },
        {
          "internalType": "uint256",
          "name": "tokenId",
          "type": "uint256"
        }
      ],
      "name": "ERC721InsufficientApproval",
      "type": "error"
    },
    {
      "inputs": [
        {
          "internalType": "address",
          "name": "approver",
          "type": "address"
        }
      ],
      "name": "ERC721InvalidApprover",
      "type": "error"
    },
    {
      "inputs": [
        {
          "internalType": "address",
          "name": "operator",
          "type": "address"
        }
      ],
      "name": "ERC721InvalidOperator",
      "type": "error"
    },
    {
      "inputs": [
        {
          "internalType": "address",
          "name": "owner",
          "type": "address"
        }
      ],
      "name": "ERC721InvalidOwner",
      "type": "error"
    },
    {
      "inputs": [
        {
          "internalType": "address",
          "name": "receiver",
          "type": "address"
        }
      ],
      "name": "ERC721InvalidReceiver",
      "type": "error"
    },
    {
      "inputs": [
        {
          "internalType": "address",
          "name": "sender",
          "type": "address"
        }
      ],
      "name": "ERC721InvalidSender",
      "type": "error"
    },
    {
      "inputs": [
        {
          "internalType": "uint256",
          "name": "tokenId",
          "type": "uint256"
        }
      ],
      "name": "ERC721NonexistentToken",
      "type": "error"
    },
    {
      "inputs": [
        {
          "internalType": "address",
          "name": "owner",
          "type": "address"
        }
      ],
      "name": "OwnableInvalidOwner",
      "type": "error"
    },
    {
      "inputs": [
        {
          "internalType": "address",
          "name": "account",
          "type": "address"
        }
      ],
      "name": "OwnableUnauthorizedAccount",
      "type": "error"
    },
    {
      "anonymous": false,
      "inputs": [
        {
          "indexed": true,
          "internalType": "address",
          "name": "owner",
          "type": "address"
        },
        {
          "indexed": true,
          "internalType": "address",
          "name": "approved",
          "type": "address"
        },
        {
          "indexed": true,
          "internalType": "uint256",
          "name": "tokenId",
          "type": "uint256"
        }
      ],
      "name": "Approval",
      "type": "event"
    },
    {
      "anonymous": false,
      "inputs": [
        {
          "indexed": true,
          "internalType": "address",
          "name": "owner",
          "type": "address"
        },
        {
          "indexed": true,
          "internalType": "address",
          "name": "operator",
          "type": "address"
        },
        {
          "indexed": false,
          "internalType": "bool",
          "name": "approved",
          "type": "bool"
        }
      ],
      "name": "ApprovalForAll",
      "type": "event"
    },
    {
      "anonymous": false,
      "inputs": [
        {
          "indexed": false,
          "internalType": "uint256",
          "name": "tokenId",
          "type": "uint256"
        }
      ],
      "name": "Locked",
      "type": "event"
    },
    {
      "anonymous": false,
      "inputs": [
        {
          "indexed": true,
          "internalType": "address",
          "name": "previousOwner",
          "type": "address"
        },
        {
          "indexed": true,
          "internalType": "address",
          "name": "newOwner",
          "type": "address"
        }
      ],
      "name": "OwnershipTransferred",
      "type": "event"
    },
    {
      "anonymous": false,
      "inputs": [
        {
          "indexed": false,
          "internalType": "uint256",
          "name": "alpha",
          "type": "uint256"
        },
        {
          "indexed": false,
          "internalType": "uint256",
          "name": "beta",
          "type": "uint256"
        }
      ],
      "name": "ParamsUpdated",
      "type": "event"
    },
    {
      "anonymous": false,
      "inputs": [
        {
          "indexed": true,
          "internalType": "address",
          "name": "user",
          "type": "address"
        },
        {
          "indexed": false,
          "internalType": "uint256",
          "name": "score",
          "type": "uint256"
        },
        {
          "indexed": false,
          "internalType": "uint256",
          "name": "tokenId",
          "type": "uint256"
        }
      ],
      "name": "SoulMinted",
      "type": "event"
    },
    {
      "anonymous": false,
      "inputs": [
        {
          "indexed": true,
          "internalType": "address",
          "name": "user",
          "type": "address"
        },
        {
          "indexed": false,
          "internalType": "uint256",
          "name": "newScore",
          "type": "uint256"
        },
        {
          "indexed": false,
          "internalType": "bytes32",
          "name": "taskId",
          "type": "bytes32"
        }
      ],
      "name": "SoulUpdated",
      "type": "event"
    },
    {
      "anonymous": false,
      "inputs": [
        {
          "indexed": true,
          "internalType": "address",
          "name": "from",
          "type": "address"
        },
        {
          "indexed": true,
          "internalType": "address",
          "name": "to",
          "type": "address"
        },
        {
          "indexed": true,
          "internalType": "uint256",
          "name": "tokenId",
          "type": "uint256"
        }
      ],
      "name": "Transfer",
      "type": "event"
    },
    {
      "anonymous": false,
      "inputs": [
        {
          "indexed": false,
          "internalType": "uint256",
          "name": "tokenId",
          "type": "uint256"
        }
      ],
      "name": "Unlocked",
      "type": "event"
    },
    {
      "inputs": [
        {
          "internalType": "address",
          "name": "to",
          "type": "address"
        },
        {
          "internalType": "uint256",
          "name": "tokenId",
          "type": "uint256"
        }
      ],
      "name": "approve",
      "outputs": [],
      "stateMutability": "nonpayable",
      "type": "function"
    },
    {
      "inputs": [
        {
          "internalType": "address",
          "name": "owner",
          "type": "address"
        }
      ],
      "name": "balanceOf",
      "outputs": [
        {
          "internalType": "uint256",
          "name": "",
          "type": "uint256"
        }
      ],
      "stateMutability": "view",
      "type": "function"
    },
    {
      "inputs": [
        {
          "internalType": "uint256",
          "name": "tokenId",
          "type": "uint256"
        }
      ],
      "name": "getApproved",
      "outputs": [
        {
          "internalType": "address",
          "name": "",
          "type": "address"
        }
      ],
      "stateMutability": "view",
      "type": "function"
    },
    {
      "inputs": [
        {
          "internalType": "address",
          "name": "owner",
          "type": "address"
        },
        {
          "internalType": "address",
          "name": "operator",
          "type": "address"
        }
      ],
      "name": "isApprovedForAll",
      "outputs": [
        {
          "internalType": "bool",
          "name": "",
          "type": "bool"
        }
      ],
      "stateMutability": "view",
      "type": "function"
    },
    {
      "inputs": [
        {
          "internalType": "uint256",
          "name": "",
          "type": "uint256"
        }
      ],
      "name": "isLocked",
      "outputs": [
        {
          "internalType": "bool",
          "name": "",
          "type": "bool"
        }
      ],
      "stateMutability": "view",
      "type": "function"
    },
    {
      "inputs": [
        {
          "internalType": "uint256",
          "name": "tokenId",
          "type": "uint256"
        }
      ],
      "name": "locked",
      "outputs": [
        {
          "internalType": "bool",
          "name": "",
          "type": "bool"
        }
      ],
      "stateMutability": "view",
      "type": "function"
    },
    {
      "inputs": [
        {
          "internalType": "address",
          "name": "user",
          "type": "address"
        },
        {
          "internalType": "uint256[]",
          "name": "contributions",
          "type": "uint256[]"
        },
        {
          "internalType": "uint256",
          "name": "contextCost",
          "type": "uint256"
        },
        {
          "internalType": "bytes32",
          "name": "taskId",
          "type": "bytes32"
        }
      ],
      "name": "mintOrUpdate",
      "outputs": [],
      "stateMutability": "nonpayable",
      "type": "function"
    },
    {
      "inputs": [],
      "name": "name",
      "outputs": [
        {
          "internalType": "string",
          "name": "",
          "type": "string"
        }
      ],
      "stateMutability": "view",
      "type": "function"
    },
    {
      "inputs": [],
      "name": "owner",
      "outputs": [
        {
          "internalType": "address",
          "name": "",
          "type": "address"
        }
      ],
      "stateMutability": "view",
      "type": "function"
    },
    {
      "inputs": [
        {
          "internalType": "uint256",
          "name": "tokenId",
          "type": "uint256"
        }
      ],
      "name": "ownerOf",
      "outputs": [
        {
          "internalType": "address",
          "name": "",
          "type": "address"
        }
      ],
      "stateMutability": "view",
      "type": "function"
    },
    {
      "inputs": [],
      "name": "params",
      "outputs": [
        {
          "internalType": "uint256",
          "name": "alpha",
          "type": "uint256"
        },
        {
          "internalType": "uint256",
          "name": "beta",
          "type": "uint256"
        },
        {
          "internalType": "uint256",
          "name": "lambda",
          "type": "uint256"
        },
        {
          "internalType": "uint256",
          "name": "gamma",
          "type": "uint256"
        },
        {
          "internalType": "uint256",
          "name": "kappa",
          "type": "uint256"
        },
        {
          "internalType": "uint256",
          "name": "K",
          "type": "uint256"
        },
        {
          "internalType": "uint256",
          "name": "M",
          "type": "uint256"
        }
      ],
      "stateMutability": "view",
      "type": "function"
    },
    {
      "inputs": [],
      "name": "renounceOwnership",
      "outputs": [],
      "stateMutability": "nonpayable",
      "type": "function"
    },
    {
      "inputs": [
        {
          "internalType": "address",
          "name": "from",
          "type": "address"
        },
        {
          "internalType": "address",
          "name": "to",
          "type": "address"
        },
        {
          "internalType": "uint256",
          "name": "tokenId",
          "type": "uint256"
        }
      ],
      "name": "safeTransferFrom",
      "outputs": [],
      "stateMutability": "nonpayable",
      "type": "function"
    },
    {
      "inputs": [
        {
          "internalType": "address",
          "name": "from",
          "type": "address"
        },
        {
          "internalType": "address",
          "name": "to",
          "type": "address"
        },
        {
          "internalType": "uint256",
          "name": "tokenId",
          "type": "uint256"
        },
        {
          "internalType": "bytes",
          "name": "data",
          "type": "bytes"
        }
      ],
      "name": "safeTransferFrom",
      "outputs": [],
      "stateMutability": "pure",
      "type": "function"
    },
    {
      "inputs": [
        {
          "internalType": "address",
          "name": "operator",
          "type": "address"
        },
        {
          "internalType": "bool",
          "name": "approved",
          "type": "bool"
        }
      ],
      "name": "setApprovalForAll",
      "outputs": [],
      "stateMutability": "nonpayable",
      "type": "function"
    },
    {
      "inputs": [
        {
          "internalType": "uint256",
          "name": "",
          "type": "uint256"
        }
      ],
      "name": "soulData",
      "outputs": [
        {
          "internalType": "uint256",
          "name": "score",
          "type": "uint256"
        },
        {
          "internalType": "bytes32",
          "name": "latestTask",
          "type": "bytes32"
        },
        {
          "internalType": "uint256",
          "name": "timestamp",
          "type": "uint256"
        },
        {
          "internalType": "uint256",
          "name": "pluralScore",
          "type": "uint256"
        },
        {
          "internalType": "uint256",
          "name": "whaleScore",
          "type": "uint256"
        }
      ],
      "stateMutability": "view",
      "type": "function"
    },
    {
      "inputs": [
        {
          "internalType": "bytes4",
          "name": "interfaceId",
          "type": "bytes4"
        }
      ],
      "name": "supportsInterface",
      "outputs": [
        {
          "internalType": "bool",
          "name": "",
          "type": "bool"
        }
      ],
      "stateMutability": "view",
      "type": "function"
    },
    {
      "inputs": [],
      "name": "symbol",
      "outputs": [
        {
          "internalType": "string",
          "name": "",
          "type": "string"
        }
      ],
      "stateMutability": "view",
      "type": "function"
    },
    {
      "inputs": [
        {
          "internalType": "uint256",
          "name": "tokenId",
          "type": "uint256"
        }
      ],
      "name": "tokenURI",
      "outputs": [
        {
          "internalType": "string",
          "name": "",
          "type": "string"
        }
      ],
      "stateMutability": "view",
      "type": "function"
    },
    {
      "inputs": [
        {
          "internalType": "address",
          "name": "from",
          "type": "address"
        },
        {
          "internalType": "address",
          "name": "to",
          "type": "address"
        },
        {
          "internalType": "uint256",
          "name": "tokenId",
          "type": "uint256"
        }
      ],
      "name": "transferFrom",
      "outputs": [],
      "stateMutability": "pure",
      "type": "function"
    },
    {
      "inputs": [
        {
          "internalType": "address",
          "name": "newOwner",
          "type": "address"
        }
      ],
      "name": "transferOwnership",
      "outputs": [],
      "stateMutability": "nonpayable",
      "type": "function"
    },
    {
      "inputs": [
        {
          "internalType": "uint256",
          "name": "_alpha",
          "type": "uint256"
        },
        {
          "internalType": "uint256",
          "name": "_beta",
          "type": "uint256"
        },
        {
          "internalType": "uint256",
          "name": "_lambda",
          "type": "uint256"
        },
        {
          "internalType": "uint256",
          "name": "_gamma",
          "type": "uint256"
        },
        {
          "internalType": "uint256",
          "name": "_kappa",
          "type": "uint256"
        },
        {
          "internalType": "uint256",
          "name": "_K",
          "type": "uint256"
        },
        {
          "internalType": "uint256",
          "name": "_M",
          "type": "uint256"
        }
      ],
      "name": "updateParams",
      "outputs": [],
      "stateMutability": "nonpayable",
      "type": "function"
    }
  ],
  "bytecode": "0x60806040523480156200001157600080fd5b50336040518060400160405280600a81526020016914dbdd5b08141bda5b9d60b21b8152506040518060400160405280600481526020016314d3d55360e21b81525081600090816200006491906200023a565b5060016200007382826200023a565b5050506001600160a01b038116620000a557604051631e4fbdf760e01b81526000600482015260240160405180910390fd5b620000b08162000143565b506040805160e081018252670853a0d2313c0000808252671bc16d674ec8000060208301819052670214e8348c4f00009383018490526714d1120d7b16000060608401819052670de0b6b3a764000060808501819052600360a08601819052600a60c0909601869052600994909455918455600b94909455600c93909355600d92909255600e91909155600f5562000306565b600680546001600160a01b038381166001600160a01b0319831681179093556040519116919082907f8be0079c531659141344cd1fd0a4f28419497f9722a3daafe3b4186f6b6457e090600090a35050565b634e487b7160e01b600052604160045260246000fd5b600181811c90821680620001c057607f821691505b602082108103620001e157634e487b7160e01b600052602260045260246000fd5b50919050565b601f8211156200023557600081815260208120601f850160051c81016020861015620002105750805b601f850160051c820191505b8181101562000231578281556001016200021c565b5050505b505050565b81516001600160401b0381111562000256576200025662000195565b6200026e81620002678454620001ab565b84620001e7565b602080601f831160018114620002a657600084156200028d5750858301515b600019600386901b1c1916600185901b17855562000231565b600085815260208120601f198616915b82811015620002d757888601518255948401946001909101908401620002b6565b5085821015620002f65787850151600019600388901b60f8161c191681555b5050505050600190811b01905550565b611ae280620003166000396000f3fe608060405234801561001057600080fd5b50600436106101425760003560e01c8063715018a6116100b8578063b88d4fde1161007c578063b88d4fde14610300578063c87b56dd1461030e578063cff0ab9614610321578063e985e9c514610378578063f2fde38b1461038b578063f6aacfb11461039e57600080fd5b8063715018a6146102a95780638da5cb5b146102b157806395d89b41146102c2578063a22cb465146102ca578063b45a3c0e146102dd57600080fd5b80631a1546301161010a5780631a1546301461022957806323b872dd1461023c578063347f2ced1461024f57806342842e0e146102625780636352211e1461027557806370a082311461028857600080fd5b806301ffc9a71461014757806306fdde031461016f578063081812fc14610184578063095ea7b3146101af5780630ea91678146101c4575b600080fd5b61015a6101553660046115ce565b6103c1565b60405190151581526020015b60405180910390f35b610177610413565b604051610166919061161c565b61019761019236600461164f565b6104a5565b6040516001600160a01b039091168152602001610166565b6101c26101bd36600461167f565b6104ce565b005b6102016101d236600461164f565b600760205260009081526040902080546001820154600283015460038401546004909401549293919290919085565b604080519586526020860194909452928401919091526060830152608082015260a001610166565b6101c26102373660046116f0565b6104dd565b6101c261024a3660046117b7565b610759565b6101c261025d3660046117f3565b610794565b6101c26102703660046117b7565b610836565b61019761028336600461164f565b610856565b61029b61029636600461183f565b610861565b604051908152602001610166565b6101c26108a9565b6006546001600160a01b0316610197565b6101776108bd565b6101c26102d836600461185a565b6108cc565b61015a6102eb36600461164f565b60009081526008602052604090205460ff1690565b6101c261024a366004611896565b61017761031c36600461164f565b6108d7565b600954600a54600b54600c54600d54600e54600f546103439695949392919087565b604080519788526020880196909652948601939093526060850191909152608084015260a083015260c082015260e001610166565b61015a610386366004611956565b61094c565b6101c261039936600461183f565b61097a565b61015a6103ac36600461164f565b60086020526000908152604090205460ff1681565b60006001600160e01b031982166380ac58cd60e01b14806103f257506001600160e01b03198216635b5e139f60e01b145b8061040d57506301ffc9a760e01b6001600160e01b03198316145b92915050565b60606000805461042290611989565b80601f016020809104026020016040519081016040528092919081815260200182805461044e90611989565b801561049b5780601f106104705761010080835404028352916020019161049b565b820191906000526020600020905b81548152906001019060200180831161047e57829003601f168201915b5050505050905090565b60006104b0826109b8565b506000828152600460205260409020546001600160a01b031661040d565b6104d98282336109f1565b5050565b6104e56109fe565b6040805160e0810182526009548152600a546020820152600b5491810191909152600c546060820152600d546080820152600e5460a0820152600f5460c08201526001600160a01b0385169060009061054090869086610a2b565b90506040518060a001604052808281526020018481526020014281526020016105bc8760096040518060e001604052908160008201548152602001600182015481526020016002820154815260200160038201548152602001600482015481526020016005820154815260200160068201548152505088610ae0565b81526040805160e0810182526009548152600a54602082810191909152600b5492820192909252600c546060820152600d546080820152600e5460a0820152600f5460c0820152910190610611908890610b96565b9052600083815260076020908152604080832084518155848301516001820155848201516002808301919091556060860151600383015560809095015160049091015592905220546001600160a01b031661070c576106708683610ce2565b60008281526008602052604090819020805460ff19166001179055517f032bc66be43dbccb7487781d168eb7bda224628a3b2c3388bdf69b532a3a1611906106bb9084815260200190565b60405180910390a160408051828152602081018490526001600160a01b038816917f1db727381fa310661617a152d92374871206c992070423ec0c71899b29dcb5ad910160405180910390a2610751565b60408051828152602081018590526001600160a01b038816917fe3abc35bbe200f81b156f6807e186f572acc67927c3cf756c9105d1438be9121910160405180910390a25b505050505050565b60405162461bcd60e51b815260206004820152600b60248201526a14d0950e88131bd8dad95960aa1b60448201526064015b60405180910390fd5b61079c6109fe565b6040805160e0810182528881526020808201899052818301889052606082018790526080820186905260a0820185905260c09091018390526009899055600a889055600b879055600c869055600d859055600e849055600f83905581518981529081018890527fd1fdb534a9ff53ea58c62004a9a02a5ebc4e8b22ebee9a02db482c3678d3a344910160405180910390a150505050505050565b61085183838360405180602001604052806000815250610759565b505050565b600061040d826109b8565b60006001600160a01b03821661088d576040516322718ad960e21b81526000600482015260240161078b565b506001600160a01b031660009081526003602052604090205490565b6108b16109fe565b6108bb6000610d47565b565b60606001805461042290611989565b6104d9338383610d99565b60606108e2826109b8565b5060006108fa60408051602081019091526000815290565b9050600081511161091a5760405180602001604052806000815250610945565b8061092484610e38565b6040516020016109359291906119bd565b6040516020818303038152906040525b9392505050565b6001600160a01b03918216600090815260056020908152604080832093909416825291909152205460ff1690565b6109826109fe565b6001600160a01b0381166109ac57604051631e4fbdf760e01b81526000600482015260240161078b565b6109b581610d47565b50565b6000818152600260205260408120546001600160a01b03168061040d57604051637e27328960e01b81526004810184905260240161078b565b6108518383836001610ecb565b6006546001600160a01b031633146108bb5760405163118cdaa760e01b815233600482015260240161078b565b6000835160001480610a3b575081155b15610a4857506000610945565b6000610a55858585610ae0565b90506000610a638686610b96565b905060008560400151670de0b6b3a7640000610a7f9190611a02565b90506000670de0b6b3a7640000610a968584611a15565b610aa09190611a42565b90506000670de0b6b3a7640000848960400151610abd9190611a15565b610ac79190611a42565b9050610ad38183611a56565b9998505050505050505050565b600080805b8551811015610b42576000610b20878381518110610b0557610b05611a69565b60200260200101518760000151670de0b6b3a7640000610fd1565b9050610b2c8184611a56565b9250508080610b3a90611a7f565b915050610ae5565b506000610b5c828660200151670de0b6b3a7640000610fd1565b905083670de0b6b3a7640000828760c00151610b789190611a15565b610b829190611a15565b610b8c9190611a42565b9695505050505050565b60008160a00151600003610bac5750600061040d565b6000805b8451811015610bf257848181518110610bcb57610bcb611a69565b602002602001015182610bde9190611a56565b915080610bea81611a7f565b915050610bb0565b5080600003610c0557600091505061040d565b6000610c1085611121565b905060008086518660a0015111610c2b578560a00151610c2e565b86515b905060005b81811015610cb357600085670de0b6b3a7640000868481518110610c5957610c59611a69565b6020026020010151610c6b9190611a15565b610c759190611a42565b90506000610c90828a60600151670de0b6b3a7640000610fd1565b9050610c9c8186611a56565b945050508080610cab90611a7f565b915050610c33565b50670de0b6b3a7640000828760800151610ccd9190611a15565b610cd79190611a42565b979650505050505050565b6001600160a01b038216610d0c57604051633250574960e11b81526000600482015260240161078b565b6000610d1a838360006112c3565b90506001600160a01b03811615610851576040516339e3563760e11b81526000600482015260240161078b565b600680546001600160a01b038381166001600160a01b0319831681179093556040519116919082907f8be0079c531659141344cd1fd0a4f28419497f9722a3daafe3b4186f6b6457e090600090a35050565b6001600160a01b038216610dcb57604051630b61174360e31b81526001600160a01b038316600482015260240161078b565b6001600160a01b03838116600081815260056020908152604080832094871680845294825291829020805460ff191686151590811790915591519182527f17307eab39ab6107e8899845ad3d59bd9653f200f220920489ca2b5937696c31910160405180910390a3505050565b60606000610e45836113bc565b600101905060008167ffffffffffffffff811115610e6557610e656116a9565b6040519080825280601f01601f191660200182016040528015610e8f576020820181803683370190505b5090508181016020015b600019016f181899199a1a9b1b9c1cb0b131b232b360811b600a86061a8153600a8504945084610e9957509392505050565b8080610edf57506001600160a01b03821615155b15610fa1576000610eef846109b8565b90506001600160a01b03831615801590610f1b5750826001600160a01b0316816001600160a01b031614155b8015610f2e5750610f2c818461094c565b155b15610f575760405163a9fbf51f60e01b81526001600160a01b038416600482015260240161078b565b8115610f9f5783856001600160a01b0316826001600160a01b03167f8c5be1e5ebec7d5bd14f71427d1e84f3dd0314c0f7b2291e5b200ac8c7c3b92560405160405180910390a45b505b5050600090815260046020526040902080546001600160a01b0319166001600160a01b0392909216919091179055565b6000818303610fe1575082610945565b82600003610ff0575080610945565b8360000361100057506000610945565b61100b826002611a15565b830361102d578161101c8580611a15565b6110269190611a42565b9050610945565b611038826003611a15565b830361105d576110488280611a15565b846110538180611a15565b61101c9190611a15565b611068600283611a42565b83036110805761102661107b8386611a15565b611494565b818311156111145760006110948385611a42565b905060006110a28486611a98565b90508560015b838110156110d957856110bb8984611a15565b6110c59190611a42565b9150806110d181611a7f565b9150506110a8565b50811561110a5760006110ef61107b878a611a15565b9050856110fc8284611a15565b6111069190611a42565b9150505b9250610945915050565b61102661107b8386611a15565b60606000825167ffffffffffffffff81111561113f5761113f6116a9565b604051908082528060200260200182016040528015611168578160200160208202803683370190505b50905060005b83518110156111c05783818151811061118957611189611a69565b60200260200101518282815181106111a3576111a3611a69565b6020908102919091010152806111b881611a7f565b91505061116e565b5060005b81518110156112bc5760006111da826001611a56565b90505b82518110156112a9578281815181106111f8576111f8611a69565b602002602001015183838151811061121257611212611a69565b6020026020010151101561129757600083838151811061123457611234611a69565b6020026020010151905083828151811061125057611250611a69565b602002602001015184848151811061126a5761126a611a69565b6020026020010181815250508084838151811061128957611289611a69565b602002602001018181525050505b806112a181611a7f565b9150506111dd565b50806112b481611a7f565b9150506111c4565b5092915050565b6000828152600260205260408120546001600160a01b03908116908316156112f0576112f0818486611504565b6001600160a01b0381161561132e5761130d600085600080610ecb565b6001600160a01b038116600090815260036020526040902080546000190190555b6001600160a01b0385161561135d576001600160a01b0385166000908152600360205260409020805460010190555b60008481526002602052604080822080546001600160a01b0319166001600160a01b0389811691821790925591518793918516917fddf252ad1be2c89b69c2b068fc378daa952ba7f163c4a11628f55a4df523b3ef91a4949350505050565b60008072184f03e93ff9f4daa797ed6e38ed64bf6a1f0160401b83106113fb5772184f03e93ff9f4daa797ed6e38ed64bf6a1f0160401b830492506040015b6d04ee2d6d415b85acef81000000008310611427576d04ee2d6d415b85acef8100000000830492506020015b662386f26fc10000831061144557662386f26fc10000830492506010015b6305f5e100831061145d576305f5e100830492506008015b612710831061147157612710830492506004015b60648310611483576064830492506002015b600a831061040d5760010192915050565b600060038211156114f557508060006114ae600283611a42565b6114b9906001611a56565b90505b818110156114ef579050806002816114d48186611a42565b6114de9190611a56565b6114e89190611a42565b90506114bc565b50919050565b81156114ff575060015b919050565b61150f838383611568565b610851576001600160a01b03831661153d57604051637e27328960e01b81526004810182905260240161078b565b60405163177e802f60e01b81526001600160a01b03831660048201526024810182905260440161078b565b60006001600160a01b038316158015906115c65750826001600160a01b0316846001600160a01b031614806115a257506115a2848461094c565b806115c657506000828152600460205260409020546001600160a01b038481169116145b949350505050565b6000602082840312156115e057600080fd5b81356001600160e01b03198116811461094557600080fd5b60005b838110156116135781810151838201526020016115fb565b50506000910152565b602081526000825180602084015261163b8160408501602087016115f8565b601f01601f19169190910160400192915050565b60006020828403121561166157600080fd5b5035919050565b80356001600160a01b03811681146114ff57600080fd5b6000806040838503121561169257600080fd5b61169b83611668565b946020939093013593505050565b634e487b7160e01b600052604160045260246000fd5b604051601f8201601f1916810167ffffffffffffffff811182821017156116e8576116e86116a9565b604052919050565b6000806000806080858703121561170657600080fd5b61170f85611668565b935060208086013567ffffffffffffffff8082111561172d57600080fd5b818801915088601f83011261174157600080fd5b813581811115611753576117536116a9565b8060051b91506117648483016116bf565b818152918301840191848101908b84111561177e57600080fd5b938501935b8385101561179c57843582529385019390850190611783565b989b989a505050506040870135966060013595945050505050565b6000806000606084860312156117cc57600080fd5b6117d584611668565b92506117e360208501611668565b9150604084013590509250925092565b600080600080600080600060e0888a03121561180e57600080fd5b505085359760208701359750604087013596606081013596506080810135955060a0810135945060c0013592509050565b60006020828403121561185157600080fd5b61094582611668565b6000806040838503121561186d57600080fd5b61187683611668565b91506020830135801515811461188b57600080fd5b809150509250929050565b600080600080608085870312156118ac57600080fd5b6118b585611668565b935060206118c4818701611668565b935060408601359250606086013567ffffffffffffffff808211156118e857600080fd5b818801915088601f8301126118fc57600080fd5b81358181111561190e5761190e6116a9565b611920601f8201601f191685016116bf565b9150808252898482850101111561193657600080fd5b808484018584013760008482840101525080935050505092959194509250565b6000806040838503121561196957600080fd5b61197283611668565b915061198060208401611668565b90509250929050565b600181811c9082168061199d57607f821691505b6020821081036114ef57634e487b7160e01b600052602260045260246000fd5b600083516119cf8184602088016115f8565b8351908301906119e38183602088016115f8565b01949350505050565b634e487b7160e01b600052601160045260246000fd5b8181038181111561040d5761040d6119ec565b808202811582820484141761040d5761040d6119ec565b634e487b7160e01b600052601260045260246000fd5b600082611a5157611a51611a2c565b500490565b8082018082111561040d5761040d6119ec565b634e487b7160e01b600052603260045260246000fd5b600060018201611a9157611a916119ec565b5060010190565b600082611aa757611aa7611a2c565b50069056fea2646970667358221220d6144d7418659b959bc165cb0741ee78a39366c80d7d55410048f41bc9ef161264736f6c63430008140033",
  "linkReferences": {},
  "deployedLinkReferences": {}
}