{
  "_format": "hh-sol-artifact-1",
  "contractName": "SoulToken",
  "sourceName": "contracts/SoulToken.sol",
  "abi": [
    {
      "inputs": [],
      "stateMutability": "nonpayable",
      "type": "constructor"
    },
    {
      "inputs": [
        {
          "internalType": "address",
          "name": "sender",
          "type": "address"
        },
        {
          "internalType": "uint256",
          "name": "tokenId",
          "type": "uint256"
        },
        {
          "internalType": "address",
          "name": "owner",
          "type": "address"
        }
      ],
      "name": "ERC721IncorrectOwner",
      "type": "error"
    },
    {
      "inputs": [
        {
          "internalType": "address",
          "name": "operator",
          "type": "address"
        },
        {
          "internalType": "uint256",
          "name": "tokenId",
          "type": "uint256"
        }
      ],
      "name": "ERC721InsufficientApproval",
      "type": "error"
    },
    {
      "inputs": [
        {
          "internalType": "address",
          "name": "approver",
          "type": "address"
        }
      ],
      "name": "ERC721InvalidApprover",
      "type": "error"
    },
    {
      "inputs": [
        {
          "internalType": "address",
          "name": "operator",
          "type": "address"
        }
      ],
      "name": "ERC721InvalidOperator",
      "type": "error"
    },
    {
      "inputs": [
        {
          "internalType": "address",
          "name": "owner",
          "type": "address"
        }
      ],
      "name": "ERC721InvalidOwner",
      "type": "error"
    },
    {
      "inputs": [
        {
          "internalType": "address",
          "name": "receiver",
          "type": "address"
        }
      ],
      "name": "ERC721InvalidReceiver",
      "type": "error"
    },
    {
      "inputs": [
        {
          "internalType": "address",
          "name": "sender",
          "type": "address"
        }
      ],
      "name": "ERC721InvalidSender",
      "type": "error"
    },
    {
      "inputs": [
        {
          "internalType": "uint256",
          "name": "tokenId",
          "type": "uint256"
        }
      ],
      "name": "ERC721NonexistentToken",
      "type": "error"
    },
    {
      "inputs": [
        {
          "internalType": "address",
          "name": "owner",
          "type": "address"
        }
      ],
      "name": "OwnableInvalidOwner",
      "type": "error"
    },
    {
      "inputs": [
        {
          "internalType": "address",
          "name": "account",
          "type": "address"
        }
      ],
      "name": "OwnableUnauthorizedAccount",
      "type": "error"
    },
    {
      "anonymous": false,
      "inputs": [
        {
          "indexed": true,
          "internalType": "address",
          "name": "owner",
          "type": "address"
        },
        {
          "indexed": true,
          "internalType": "address",
          "name": "approved",
          "type": "address"
        },
        {
          "indexed": true,
          "internalType": "uint256",
          "name": "tokenId",
          "type": "uint256"
        }
      ],
      "name": "Approval",
      "type": "event"
    },
    {
      "anonymous": false,
      "inputs": [
        {
          "indexed": true,
          "internalType": "address",
          "name": "owner",
          "type": "address"
        },
        {
          "indexed": true,
          "internalType": "address",
          "name": "operator",
          "type": "address"
        },
        {
          "indexed": false,
          "internalType": "bool",
          "name": "approved",
          "type": "bool"
        }
      ],
      "name": "ApprovalForAll",
      "type": "event"
    },
    {
      "anonymous": false,
      "inputs": [
        {
          "indexed": true,
          "internalType": "address",
          "name": "previousOwner",
          "type": "address"
        },
        {
          "indexed": true,
          "internalType": "address",
          "name": "newOwner",
          "type": "address"
        }
      ],
      "name": "OwnershipTransferred",
      "type": "event"
    },
    {
      "anonymous": false,
      "inputs": [
        {
          "indexed": true,
          "internalType": "address",
          "name": "from",
          "type": "address"
        },
        {
          "indexed": true,
          "internalType": "address",
          "name": "to",
          "type": "address"
        },
        {
          "indexed": true,
          "internalType": "uint256",
          "name": "tokenId",
          "type": "uint256"
        }
      ],
      "name": "Transfer",
      "type": "event"
    },
    {
      "inputs": [
        {
          "internalType": "address",
          "name": "to",
          "type": "address"
        },
        {
          "internalType": "uint256",
          "name": "tokenId",
          "type": "uint256"
        }
      ],
      "name": "approve",
      "outputs": [],
      "stateMutability": "nonpayable",
      "type": "function"
    },
    {
      "inputs": [
        {
          "internalType": "address",
          "name": "owner",
          "type": "address"
        }
      ],
      "name": "balanceOf",
      "outputs": [
        {
          "internalType": "uint256",
          "name": "",
          "type": "uint256"
        }
      ],
      "stateMutability": "view",
      "type": "function"
    },
    {
      "inputs": [
        {
          "internalType": "uint256",
          "name": "tokenId",
          "type": "uint256"
        }
      ],
      "name": "getApproved",
      "outputs": [
        {
          "internalType": "address",
          "name": "",
          "type": "address"
        }
      ],
      "stateMutability": "view",
      "type": "function"
    },
    {
      "inputs": [
        {
          "internalType": "address",
          "name": "owner",
          "type": "address"
        },
        {
          "internalType": "address",
          "name": "operator",
          "type": "address"
        }
      ],
      "name": "isApprovedForAll",
      "outputs": [
        {
          "internalType": "bool",
          "name": "",
          "type": "bool"
        }
      ],
      "stateMutability": "view",
      "type": "function"
    },
    {
      "inputs": [
        {
          "internalType": "address",
          "name": "user",
          "type": "address"
        }
      ],
      "name": "mintSoul",
      "outputs": [
        {
          "internalType": "uint256",
          "name": "",
          "type": "uint256"
        }
      ],
      "stateMutability": "nonpayable",
      "type": "function"
    },
    {
      "inputs": [],
      "name": "name",
      "outputs": [
        {
          "internalType": "string",
          "name": "",
          "type": "string"
        }
      ],
      "stateMutability": "view",
      "type": "function"
    },
    {
      "inputs": [],
      "name": "owner",
      "outputs": [
        {
          "internalType": "address",
          "name": "",
          "type": "address"
        }
      ],
      "stateMutability": "view",
      "type": "function"
    },
    {
      "inputs": [
        {
          "internalType": "uint256",
          "name": "tokenId",
          "type": "uint256"
        }
      ],
      "name": "ownerOf",
      "outputs": [
        {
          "internalType": "address",
          "name": "",
          "type": "address"
        }
      ],
      "stateMutability": "view",
      "type": "function"
    },
    {
      "inputs": [],
      "name": "renounceOwnership",
      "outputs": [],
      "stateMutability": "nonpayable",
      "type": "function"
    },
    {
      "inputs": [
        {
          "internalType": "address",
          "name": "from",
          "type": "address"
        },
        {
          "internalType": "address",
          "name": "to",
          "type": "address"
        },
        {
          "internalType": "uint256",
          "name": "tokenId",
          "type": "uint256"
        }
      ],
      "name": "safeTransferFrom",
      "outputs": [],
      "stateMutability": "nonpayable",
      "type": "function"
    },
    {
      "inputs": [
        {
          "internalType": "address",
          "name": "from",
          "type": "address"
        },
        {
          "internalType": "address",
          "name": "to",
          "type": "address"
        },
        {
          "internalType": "uint256",
          "name": "tokenId",
          "type": "uint256"
        },
        {
          "internalType": "bytes",
          "name": "data",
          "type": "bytes"
        }
      ],
      "name": "safeTransferFrom",
      "outputs": [],
      "stateMutability": "pure",
      "type": "function"
    },
    {
      "inputs": [
        {
          "internalType": "address",
          "name": "operator",
          "type": "address"
        },
        {
          "internalType": "bool",
          "name": "approved",
          "type": "bool"
        }
      ],
      "name": "setApprovalForAll",
      "outputs": [],
      "stateMutability": "nonpayable",
      "type": "function"
    },
    {
      "inputs": [
        {
          "internalType": "bytes4",
          "name": "interfaceId",
          "type": "bytes4"
        }
      ],
      "name": "supportsInterface",
      "outputs": [
        {
          "internalType": "bool",
          "name": "",
          "type": "bool"
        }
      ],
      "stateMutability": "view",
      "type": "function"
    },
    {
      "inputs": [],
      "name": "symbol",
      "outputs": [
        {
          "internalType": "string",
          "name": "",
          "type": "string"
        }
      ],
      "stateMutability": "view",
      "type": "function"
    },
    {
      "inputs": [
        {
          "internalType": "uint256",
          "name": "tokenId",
          "type": "uint256"
        }
      ],
      "name": "tokenURI",
      "outputs": [
        {
          "internalType": "string",
          "name": "",
          "type": "string"
        }
      ],
      "stateMutability": "view",
      "type": "function"
    },
    {
      "inputs": [
        {
          "internalType": "address",
          "name": "from",
          "type": "address"
        },
        {
          "internalType": "address",
          "name": "to",
          "type": "address"
        },
        {
          "internalType": "uint256",
          "name": "tokenId",
          "type": "uint256"
        }
      ],
      "name": "transferFrom",
      "outputs": [],
      "stateMutability": "pure",
      "type": "function"
    },
    {
      "inputs": [
        {
          "internalType": "address",
          "name": "newOwner",
          "type": "address"
        }
      ],
      "name": "transferOwnership",
      "outputs": [],
      "stateMutability": "nonpayable",
      "type": "function"
    }
  ],
  "bytecode": "0x60806040523480156200001157600080fd5b50336040518060400160405280600a81526020016929b7bab6102a37b5b2b760b11b8152506040518060400160405280600481526020016314d3d55360e21b8152508160009081620000649190620001ae565b506001620000738282620001ae565b5050506001600160a01b038116620000a557604051631e4fbdf760e01b81526000600482015260240160405180910390fd5b620000b081620000b7565b506200027a565b600680546001600160a01b038381166001600160a01b0319831681179093556040519116919082907f8be0079c531659141344cd1fd0a4f28419497f9722a3daafe3b4186f6b6457e090600090a35050565b634e487b7160e01b600052604160045260246000fd5b600181811c908216806200013457607f821691505b6020821081036200015557634e487b7160e01b600052602260045260246000fd5b50919050565b601f821115620001a957600081815260208120601f850160051c81016020861015620001845750805b601f850160051c820191505b81811015620001a55782815560010162000190565b5050505b505050565b81516001600160401b03811115620001ca57620001ca62000109565b620001e281620001db84546200011f565b846200015b565b602080601f8311600181146200021a5760008415620002015750858301515b600019600386901b1c1916600185901b178555620001a5565b600085815260208120601f198616915b828110156200024b578886015182559484019460019091019084016200022a565b50858210156200026a5787850151600019600388901b60f8161c191681555b5050505050600190811b01905550565b610f1a806200028a6000396000f3fe608060405234801561001057600080fd5b506004361061010b5760003560e01c8063715018a6116100a2578063b88d4fde11610071578063b88d4fde1461021b578063c87b56dd14610229578063d62473cb1461023c578063e985e9c51461024f578063f2fde38b1461026257600080fd5b8063715018a6146101e75780638da5cb5b146101ef57806395d89b4114610200578063a22cb4651461020857600080fd5b806323b872dd116100de57806323b872dd1461018d57806342842e0e146101a05780636352211e146101b357806370a08231146101c657600080fd5b806301ffc9a71461011057806306fdde0314610138578063081812fc1461014d578063095ea7b314610178575b600080fd5b61012361011e366004610be8565b610275565b60405190151581526020015b60405180910390f35b6101406102c7565b60405161012f9190610c36565b61016061015b366004610c69565b610359565b6040516001600160a01b03909116815260200161012f565b61018b610186366004610c99565b610382565b005b61018b61019b366004610cc3565b610391565b61018b6101ae366004610cc3565b6103d6565b6101606101c1366004610c69565b6103f6565b6101d96101d4366004610cff565b610401565b60405190815260200161012f565b61018b610449565b6006546001600160a01b0316610160565b61014061045d565b61018b610216366004610d1a565b61046c565b61018b61019b366004610d6c565b610140610237366004610c69565b610477565b6101d961024a366004610cff565b6104ec565b61012361025d366004610e48565b61057f565b61018b610270366004610cff565b6105ad565b60006001600160e01b031982166380ac58cd60e01b14806102a657506001600160e01b03198216635b5e139f60e01b145b806102c157506301ffc9a760e01b6001600160e01b03198316145b92915050565b6060600080546102d690610e7b565b80601f016020809104026020016040519081016040528092919081815260200182805461030290610e7b565b801561034f5780601f106103245761010080835404028352916020019161034f565b820191906000526020600020905b81548152906001019060200180831161033257829003601f168201915b5050505050905090565b6000610364826105eb565b506000828152600460205260409020546001600160a01b03166102c1565b61038d828233610624565b5050565b60405162461bcd60e51b81526020600482015260156024820152745342543a204e6f6e2d7472616e7366657261626c6560581b60448201526064015b60405180910390fd5b6103f183838360405180602001604052806000815250610391565b505050565b60006102c1826105eb565b60006001600160a01b03821661042d576040516322718ad960e21b8152600060048201526024016103cd565b506001600160a01b031660009081526003602052604090205490565b610451610631565b61045b600061065e565b565b6060600180546102d690610e7b565b61038d3383836106b0565b6060610482826105eb565b50600061049a60408051602081019091526000815290565b905060008151116104ba57604051806020016040528060008152506104e5565b806104c48461074f565b6040516020016104d5929190610eb5565b6040516020818303038152906040525b9392505050565b60006104f6610631565b6001600160a01b0382166000610521826000908152600260205260409020546001600160a01b031690565b6001600160a01b03161461056d5760405162461bcd60e51b815260206004820152601360248201527214dbdd5b08185b1c9958591e481b5a5b9d1959606a1b60448201526064016103cd565b61057783826107e2565b90505b919050565b6001600160a01b03918216600090815260056020908152604080832093909416825291909152205460ff1690565b6105b5610631565b6001600160a01b0381166105df57604051631e4fbdf760e01b8152600060048201526024016103cd565b6105e88161065e565b50565b6000818152600260205260408120546001600160a01b03168061057757604051637e27328960e01b8152600481018490526024016103cd565b6103f18383836001610847565b6006546001600160a01b0316331461045b5760405163118cdaa760e01b81523360048201526024016103cd565b600680546001600160a01b038381166001600160a01b0319831681179093556040519116919082907f8be0079c531659141344cd1fd0a4f28419497f9722a3daafe3b4186f6b6457e090600090a35050565b6001600160a01b0382166106e257604051630b61174360e31b81526001600160a01b03831660048201526024016103cd565b6001600160a01b03838116600081815260056020908152604080832094871680845294825291829020805460ff191686151590811790915591519182527f17307eab39ab6107e8899845ad3d59bd9653f200f220920489ca2b5937696c31910160405180910390a3505050565b6060600061075c8361094d565b600101905060008167ffffffffffffffff81111561077c5761077c610d56565b6040519080825280601f01601f1916602001820160405280156107a6576020820181803683370190505b5090508181016020015b600019016f181899199a1a9b1b9c1cb0b131b232b360811b600a86061a8153600a85049450846107b057509392505050565b6001600160a01b03821661080c57604051633250574960e11b8152600060048201526024016103cd565b600061081a83836000610a25565b90506001600160a01b038116156103f1576040516339e3563760e11b8152600060048201526024016103cd565b808061085b57506001600160a01b03821615155b1561091d57600061086b846105eb565b90506001600160a01b038316158015906108975750826001600160a01b0316816001600160a01b031614155b80156108aa57506108a8818461057f565b155b156108d35760405163a9fbf51f60e01b81526001600160a01b03841660048201526024016103cd565b811561091b5783856001600160a01b0316826001600160a01b03167f8c5be1e5ebec7d5bd14f71427d1e84f3dd0314c0f7b2291e5b200ac8c7c3b92560405160405180910390a45b505b5050600090815260046020526040902080546001600160a01b0319166001600160a01b0392909216919091179055565b60008072184f03e93ff9f4daa797ed6e38ed64bf6a1f0160401b831061098c5772184f03e93ff9f4daa797ed6e38ed64bf6a1f0160401b830492506040015b6d04ee2d6d415b85acef810000000083106109b8576d04ee2d6d415b85acef8100000000830492506020015b662386f26fc1000083106109d657662386f26fc10000830492506010015b6305f5e10083106109ee576305f5e100830492506008015b6127108310610a0257612710830492506004015b60648310610a14576064830492506002015b600a83106105775760010192915050565b6000828152600260205260408120546001600160a01b0390811690831615610a5257610a52818486610b1e565b6001600160a01b03811615610a9057610a6f600085600080610847565b6001600160a01b038116600090815260036020526040902080546000190190555b6001600160a01b03851615610abf576001600160a01b0385166000908152600360205260409020805460010190555b60008481526002602052604080822080546001600160a01b0319166001600160a01b0389811691821790925591518793918516917fddf252ad1be2c89b69c2b068fc378daa952ba7f163c4a11628f55a4df523b3ef91a4949350505050565b610b29838383610b82565b6103f1576001600160a01b038316610b5757604051637e27328960e01b8152600481018290526024016103cd565b60405163177e802f60e01b81526001600160a01b0383166004820152602481018290526044016103cd565b60006001600160a01b03831615801590610be05750826001600160a01b0316846001600160a01b03161480610bbc5750610bbc848461057f565b80610be057506000828152600460205260409020546001600160a01b038481169116145b949350505050565b600060208284031215610bfa57600080fd5b81356001600160e01b0319811681146104e557600080fd5b60005b83811015610c2d578181015183820152602001610c15565b50506000910152565b6020815260008251806020840152610c55816040850160208701610c12565b601f01601f19169190910160400192915050565b600060208284031215610c7b57600080fd5b5035919050565b80356001600160a01b038116811461057a57600080fd5b60008060408385031215610cac57600080fd5b610cb583610c82565b946020939093013593505050565b600080600060608486031215610cd857600080fd5b610ce184610c82565b9250610cef60208501610c82565b9150604084013590509250925092565b600060208284031215610d1157600080fd5b6104e582610c82565b60008060408385031215610d2d57600080fd5b610d3683610c82565b915060208301358015158114610d4b57600080fd5b809150509250929050565b634e487b7160e01b600052604160045260246000fd5b60008060008060808587031215610d8257600080fd5b610d8b85610c82565b9350610d9960208601610c82565b925060408501359150606085013567ffffffffffffffff80821115610dbd57600080fd5b818701915087601f830112610dd157600080fd5b813581811115610de357610de3610d56565b604051601f8201601f19908116603f01168101908382118183101715610e0b57610e0b610d56565b816040528281528a6020848701011115610e2457600080fd5b82602086016020830137600060208483010152809550505050505092959194509250565b60008060408385031215610e5b57600080fd5b610e6483610c82565b9150610e7260208401610c82565b90509250929050565b600181811c90821680610e8f57607f821691505b602082108103610eaf57634e487b7160e01b600052602260045260246000fd5b50919050565b60008351610ec7818460208801610c12565b835190830190610edb818360208801610c12565b0194935050505056fea26469706673582212205c41846ff3ab6c16d88f734b6b47fc5202401a6fcb70fcf0561283148a88a28a64736f6c63430008140033",
  "linkReferences": {},
  "deployedLinkReferences": {}
}